{
  "address": "0x5FC8d32690cc91D4c39d9d3abcBD16989F875707",
  "abi": [
    {
      "inputs": [
        {
          "internalType": "contract IEasyAuction",
          "name": "_easyAuction",
          "type": "address"
        },
        {
          "internalType": "address",
          "name": "_nativeTokenWrapper",
          "type": "address"
        }
      ],
      "stateMutability": "nonpayable",
      "type": "constructor"
    },
    {
      "inputs": [
        {
          "internalType": "uint256",
          "name": "auctionId",
          "type": "uint256"
        },
        {
          "internalType": "uint96[]",
          "name": "_minBuyAmounts",
          "type": "uint96[]"
        },
        {
          "internalType": "bytes32[]",
          "name": "_prevSellOrders",
          "type": "bytes32[]"
        },
        {
          "internalType": "string",
          "name": "referralCode",
          "type": "string"
        }
      ],
      "name": "depositAndPlaceOrder",
      "outputs": [
        {
          "internalType": "uint64",
          "name": "userId",
          "type": "uint64"
        }
      ],
      "stateMutability": "payable",
      "type": "function"
    },
    {
      "inputs": [],
      "name": "easyAuction",
      "outputs": [
        {
          "internalType": "contract IEasyAuction",
          "name": "",
          "type": "address"
        }
      ],
      "stateMutability": "view",
      "type": "function"
    },
    {
      "inputs": [],
      "name": "nativeTokenWrapper",
      "outputs": [
        {
          "internalType": "contract IWETH",
          "name": "",
          "type": "address"
        }
      ],
      "stateMutability": "view",
      "type": "function"
    }
  ],
  "transactionHash": "0xca3b89cec9a40253860b5b817d19030d8b8066bd449653deb06679a98ff74b7a",
  "args": [
    "0xCf7Ed3AccA5a467e9e704C703E8D87F634fB0Fc9",
    "0x5FbDB2315678afecb367f032d93F642f64180aa3"
  ],
  "numDeployments": 1,
  "solcInputHash": "d4e9ae7c43b28288ceb9c390effeb74f",
  "bytecode": "0x60c060405234801561001057600080fd5b506040516106f53803806106f583398101604081905261002f916100d0565b6001600160a01b0381811660a0819052908316608081905260405163095ea7b360e01b81526004810191909152600019602482015263095ea7b3906044016020604051808303816000875af115801561008c573d6000803e3d6000fd5b505050506040513d601f19601f820116820180604052508101906100b0919061010a565b505050610133565b6001600160a01b03811681146100cd57600080fd5b50565b600080604083850312156100e357600080fd5b82516100ee816100b8565b60208401519092506100ff816100b8565b809150509250929050565b60006020828403121561011c57600080fd5b8151801515811461012c57600080fd5b9392505050565b60805160a0516105916101646000396000818160c8015261015e015260008181607c015261021301526105916000f3fe6080604052600436106100345760003560e01c80632ae6d3ea14610039578063537a33811461006a578063f9ea29cb146100b6575b600080fd5b61004c6100473660046102f4565b6100ea565b60405167ffffffffffffffff90911681526020015b60405180910390f35b34801561007657600080fd5b5061009e7f000000000000000000000000000000000000000000000000000000000000000081565b6040516001600160a01b039091168152602001610061565b3480156100c257600080fd5b5061009e7f000000000000000000000000000000000000000000000000000000000000000081565b60408051600180825281830190925260009182919060208083019080368337019050509050600160601b341061015c5760405162461bcd60e51b81526020600482015260136024820152721d1bdbc81b5d58da081d985b1d59481cd95b9d606a1b604482015260640160405180910390fd5b7f00000000000000000000000000000000000000000000000000000000000000006001600160a01b031663d0e30db0346040518263ffffffff1660e01b81526004016000604051808303818588803b1580156101b757600080fd5b505af11580156101cb573d6000803e3d6000fd5b505050505034816000815181106101e4576101e46103c5565b6001600160601b039092166020928302919091019091015260405163ba8fe75f60e01b81526001600160a01b037f0000000000000000000000000000000000000000000000000000000000000000169063ba8fe75f90610258908c908c908c9087908d908d9033908e908e9060040161047a565b6020604051808303816000875af1158015610277573d6000803e3d6000fd5b505050506040513d601f19601f8201168201806040525081019061029b919061052a565b9998505050505050505050565b60008083601f8401126102ba57600080fd5b50813567ffffffffffffffff8111156102d257600080fd5b6020830191508360208260051b85010111156102ed57600080fd5b9250929050565b60008060008060008060006080888a03121561030f57600080fd5b87359650602088013567ffffffffffffffff8082111561032e57600080fd5b61033a8b838c016102a8565b909850965060408a013591508082111561035357600080fd5b61035f8b838c016102a8565b909650945060608a013591508082111561037857600080fd5b818a0191508a601f83011261038c57600080fd5b81358181111561039b57600080fd5b8b60208285010111156103ad57600080fd5b60208301945080935050505092959891949750929550565b634e487b7160e01b600052603260045260246000fd5b600081518084526020808501945080840160005b838110156104145781516001600160601b0316875295820195908201906001016103ef565b509495945050505050565b81835260006001600160fb1b0383111561043857600080fd5b8260051b80836020870137939093016020019392505050565b81835281816020850137506000828201602090810191909152601f909101601f19169091010190565b89815260c060208083018290529082018990526000908a9060e0840183805b8d8110156104cb5784356001600160601b0381168082146104b8578384fd5b8452509383019391830191600101610499565b505084810360408601526104df818c6103db565b9250505082810360608401526104f681888a61041f565b6001600160a01b0387166080850152905082810360a084015261051a818587610451565b9c9b505050505050505050505050565b60006020828403121561053c57600080fd5b815167ffffffffffffffff8116811461055457600080fd5b939250505056fea2646970667358221220bc318ec24d02403ece2a4ec4b44744d7afe5f15d8aeda166493d94bd15dbcb1e64736f6c63430008140033",
  "devdoc": {
    "kind": "dev",
    "methods": {},
    "version": 1
  },
  "userdoc": {
    "kind": "user",
    "methods": {},
    "version": 1
  },
  "storageLayout": {
    "storage": [],
    "types": null
  }
}