{
  "address": "0xCf7Ed3AccA5a467e9e704C703E8D87F634fB0Fc9",
  "abi": [
    {
      "inputs": [
        {
          "internalType": "contract IReferralRewardManager",
          "name": "_referralRewardManager",
          "type": "address"
        },
        {
          "internalType": "contract IStrategyManager",
          "name": "_strategyManager",
          "type": "address"
        }
      ],
      "stateMutability": "nonpayable",
      "type": "constructor"
    },
    {
      "anonymous": false,
      "inputs": [
        {
          "indexed": true,
          "internalType": "uint256",
          "name": "auctionId",
          "type": "uint256"
        },
        {
          "indexed": true,
          "internalType": "uint64",
          "name": "userId",
          "type": "uint64"
        },
        {
          "indexed": false,
          "internalType": "uint96",
          "name": "buyAmount",
          "type": "uint96"
        },
        {
          "indexed": false,
          "internalType": "uint96",
          "name": "sellAmount",
          "type": "uint96"
        },
        {
          "indexed": false,
          "internalType": "uint96",
          "name": "soldAuctioningTokens",
          "type": "uint96"
        },
        {
          "indexed": false,
          "internalType": "uint96",
          "name": "soldBiddingTokens",
          "type": "uint96"
        }
      ],
      "name": "AuctionCleared",
      "type": "event"
    },
    {
      "anonymous": false,
      "inputs": [
        {
          "indexed": true,
          "internalType": "uint256",
          "name": "auctionId",
          "type": "uint256"
        },
        {
          "indexed": true,
          "internalType": "uint64",
          "name": "userId",
          "type": "uint64"
        },
        {
          "indexed": false,
          "internalType": "uint96",
          "name": "buyAmount",
          "type": "uint96"
        },
        {
          "indexed": false,
          "internalType": "uint96",
          "name": "sellAmount",
          "type": "uint96"
        }
      ],
      "name": "CancellationSellOrder",
      "type": "event"
    },
    {
      "anonymous": false,
      "inputs": [
        {
          "components": [
            {
              "internalType": "uint256",
              "name": "auctionId",
              "type": "uint256"
            },
            {
              "internalType": "uint64",
              "name": "userId",
              "type": "uint64"
            },
            {
              "internalType": "uint96",
              "name": "buyAmount",
              "type": "uint96"
            },
            {
              "internalType": "uint96",
              "name": "sellAmount",
              "type": "uint96"
            },
            {
              "internalType": "string",
              "name": "referralCode",
              "type": "string"
            },
            {
              "internalType": "uint256",
              "name": "referralFee",
              "type": "uint256"
            },
            {
              "internalType": "uint256",
              "name": "auctioningTokenAmount",
              "type": "uint256"
            },
            {
              "internalType": "uint256",
              "name": "biddingTokenAmount",
              "type": "uint256"
            }
          ],
          "indexed": false,
          "internalType": "struct IEasyAuction.IClaimedFromOrder",
          "name": "params",
          "type": "tuple"
        }
      ],
      "name": "ClaimedFromOrder",
      "type": "event"
    },
    {
      "anonymous": false,
      "inputs": [
        {
          "indexed": true,
          "internalType": "uint256",
          "name": "auctionId",
          "type": "uint256"
        },
        {
          "indexed": true,
          "internalType": "contract IERC20",
          "name": "_auctioningToken",
          "type": "address"
        },
        {
          "indexed": true,
          "internalType": "contract IERC20",
          "name": "_biddingToken",
          "type": "address"
        },
        {
          "indexed": false,
          "internalType": "uint256",
          "name": "orderCancellationEndDate",
          "type": "uint256"
        },
        {
          "indexed": false,
          "internalType": "uint256",
          "name": "auctionEndDate",
          "type": "uint256"
        },
        {
          "indexed": false,
          "internalType": "uint64",
          "name": "userId",
          "type": "uint64"
        },
        {
          "indexed": false,
          "internalType": "uint96",
          "name": "_auctionedSellAmount",
          "type": "uint96"
        },
        {
          "indexed": false,
          "internalType": "uint96",
          "name": "_minBuyAmount",
          "type": "uint96"
        },
        {
          "indexed": false,
          "internalType": "uint256",
          "name": "minimumBiddingAmountPerOrder",
          "type": "uint256"
        },
        {
          "indexed": false,
          "internalType": "uint256",
          "name": "minFundingThreshold",
          "type": "uint256"
        }
      ],
      "name": "NewAuction",
      "type": "event"
    },
    {
      "anonymous": false,
      "inputs": [
        {
          "indexed": true,
          "internalType": "uint256",
          "name": "auctionId",
          "type": "uint256"
        },
        {
          "indexed": true,
          "internalType": "uint64",
          "name": "userId",
          "type": "uint64"
        },
        {
          "indexed": false,
          "internalType": "uint96",
          "name": "buyAmount",
          "type": "uint96"
        },
        {
          "indexed": false,
          "internalType": "uint96",
          "name": "sellAmount",
          "type": "uint96"
        },
        {
          "indexed": false,
          "internalType": "string",
          "name": "referralCode",
          "type": "string"
        }
      ],
      "name": "NewSellOrder",
      "type": "event"
    },
    {
      "anonymous": false,
      "inputs": [
        {
          "indexed": true,
          "internalType": "uint64",
          "name": "userId",
          "type": "uint64"
        },
        {
          "indexed": true,
          "internalType": "address",
          "name": "userAddress",
          "type": "address"
        }
      ],
      "name": "NewUser",
      "type": "event"
    },
    {
      "anonymous": false,
      "inputs": [
        {
          "indexed": true,
          "internalType": "address",
          "name": "previousOwner",
          "type": "address"
        },
        {
          "indexed": true,
          "internalType": "address",
          "name": "newOwner",
          "type": "address"
        }
      ],
      "name": "OwnershipTransferred",
      "type": "event"
    },
    {
      "anonymous": false,
      "inputs": [
        {
          "indexed": true,
          "internalType": "address",
          "name": "user",
          "type": "address"
        },
        {
          "indexed": false,
          "internalType": "uint64",
          "name": "userId",
          "type": "uint64"
        }
      ],
      "name": "UserRegistration",
      "type": "event"
    },
    {
      "inputs": [],
      "name": "FEE_DENOMINATOR",
      "outputs": [
        {
          "internalType": "uint256",
          "name": "",
          "type": "uint256"
        }
      ],
      "stateMutability": "view",
      "type": "function"
    },
    {
      "inputs": [],
      "name": "auctionCounter",
      "outputs": [
        {
          "internalType": "uint256",
          "name": "",
          "type": "uint256"
        }
      ],
      "stateMutability": "view",
      "type": "function"
    },
    {
      "inputs": [
        {
          "internalType": "uint256",
          "name": "",
          "type": "uint256"
        }
      ],
      "name": "auctionData",
      "outputs": [
        {
          "internalType": "contract IERC20",
          "name": "auctioningToken",
          "type": "address"
        },
        {
          "internalType": "contract IERC20",
          "name": "biddingToken",
          "type": "address"
        },
        {
          "internalType": "uint256",
          "name": "orderCancellationEndDate",
          "type": "uint256"
        },
        {
          "internalType": "uint256",
          "name": "auctionEndDate",
          "type": "uint256"
        },
        {
          "internalType": "bytes32",
          "name": "initialAuctionOrder",
          "type": "bytes32"
        },
        {
          "internalType": "uint256",
          "name": "minimumBiddingAmountPerOrder",
          "type": "uint256"
        },
        {
          "internalType": "uint256",
          "name": "interimSumBidAmount",
          "type": "uint256"
        },
        {
          "internalType": "bytes32",
          "name": "interimOrder",
          "type": "bytes32"
        },
        {
          "internalType": "bytes32",
          "name": "clearingPriceOrder",
          "type": "bytes32"
        },
        {
          "internalType": "uint96",
          "name": "volumeClearingPriceOrder",
          "type": "uint96"
        },
        {
          "internalType": "bool",
          "name": "minFundingThresholdNotReached",
          "type": "bool"
        },
        {
          "internalType": "uint256",
          "name": "minFundingThreshold",
          "type": "uint256"
        }
      ],
      "stateMutability": "view",
      "type": "function"
    },
    {
      "inputs": [
        {
          "internalType": "uint256",
          "name": "",
          "type": "uint256"
        }
      ],
      "name": "auctionToStrategy",
      "outputs": [
        {
          "internalType": "uint256",
          "name": "",
          "type": "uint256"
        }
      ],
      "stateMutability": "view",
      "type": "function"
    },
    {
      "inputs": [
        {
          "internalType": "uint256",
          "name": "auctionId",
          "type": "uint256"
        },
        {
          "internalType": "bytes32[]",
          "name": "_sellOrders",
          "type": "bytes32[]"
        }
      ],
      "name": "cancelSellOrders",
      "outputs": [],
      "stateMutability": "nonpayable",
      "type": "function"
    },
    {
      "inputs": [
        {
          "internalType": "uint256",
          "name": "auctionId",
          "type": "uint256"
        },
        {
          "internalType": "bytes32[]",
          "name": "orders",
          "type": "bytes32[]"
        }
      ],
      "name": "claimFromParticipantOrders",
      "outputs": [],
      "stateMutability": "nonpayable",
      "type": "function"
    },
    {
      "inputs": [
        {
          "internalType": "uint256",
          "name": "auctionId",
          "type": "uint256"
        },
        {
          "internalType": "bytes32",
          "name": "order",
          "type": "bytes32"
        }
      ],
      "name": "containsOrder",
      "outputs": [
        {
          "internalType": "bool",
          "name": "",
          "type": "bool"
        }
      ],
      "stateMutability": "view",
      "type": "function"
    },
    {
      "inputs": [],
      "name": "feeReceiverUserId",
      "outputs": [
        {
          "internalType": "uint64",
          "name": "",
          "type": "uint64"
        }
      ],
      "stateMutability": "view",
      "type": "function"
    },
    {
      "inputs": [
        {
          "internalType": "uint256",
          "name": "auctionId",
          "type": "uint256"
        }
      ],
      "name": "getSecondsRemainingInBatch",
      "outputs": [
        {
          "internalType": "uint256",
          "name": "",
          "type": "uint256"
        }
      ],
      "stateMutability": "view",
      "type": "function"
    },
    {
      "inputs": [
        {
          "internalType": "address",
          "name": "user",
          "type": "address"
        }
      ],
      "name": "getUserId",
      "outputs": [
        {
          "internalType": "uint64",
          "name": "userId",
          "type": "uint64"
        }
      ],
      "stateMutability": "nonpayable",
      "type": "function"
    },
    {
      "inputs": [
        {
          "components": [
            {
              "internalType": "contract IERC20",
              "name": "_auctioningToken",
              "type": "address"
            },
            {
              "internalType": "contract IERC20",
              "name": "_biddingToken",
              "type": "address"
            },
            {
              "internalType": "uint256",
              "name": "orderCancellationEndDate",
              "type": "uint256"
            },
            {
              "internalType": "uint256",
              "name": "auctionEndDate",
              "type": "uint256"
            },
            {
              "internalType": "uint96",
              "name": "_auctionedSellAmount",
              "type": "uint96"
            },
            {
              "internalType": "uint96",
              "name": "_minBuyAmount",
              "type": "uint96"
            },
            {
              "internalType": "uint256",
              "name": "minimumBiddingAmountPerOrder",
              "type": "uint256"
            },
            {
              "internalType": "uint256",
              "name": "minFundingThreshold",
              "type": "uint256"
            },
            {
              "internalType": "uint256",
              "name": "_referralFeeNumerator",
              "type": "uint256"
            },
            {
              "internalType": "uint256",
              "name": "strategyId",
              "type": "uint256"
            },
            {
              "internalType": "bytes32[]",
              "name": "_strategyInitParams",
              "type": "bytes32[]"
            }
          ],
          "internalType": "struct IEasyAuction.InitParams",
          "name": "params",
          "type": "tuple"
        }
      ],
      "name": "initiateAuction",
      "outputs": [
        {
          "internalType": "uint256",
          "name": "",
          "type": "uint256"
        }
      ],
      "stateMutability": "nonpayable",
      "type": "function"
    },
    {
      "inputs": [],
      "name": "numUsers",
      "outputs": [
        {
          "internalType": "uint64",
          "name": "",
          "type": "uint64"
        }
      ],
      "stateMutability": "view",
      "type": "function"
    },
    {
      "inputs": [],
      "name": "owner",
      "outputs": [
        {
          "internalType": "address",
          "name": "",
          "type": "address"
        }
      ],
      "stateMutability": "view",
      "type": "function"
    },
    {
      "inputs": [
        {
          "internalType": "uint256",
          "name": "auctionId",
          "type": "uint256"
        },
        {
          "internalType": "uint96[]",
          "name": "_minBuyAmounts",
          "type": "uint96[]"
        },
        {
          "internalType": "uint96[]",
          "name": "_sellAmounts",
          "type": "uint96[]"
        },
        {
          "internalType": "bytes32[]",
          "name": "_prevSellOrders",
          "type": "bytes32[]"
        },
        {
          "internalType": "string",
          "name": "referralCode",
          "type": "string"
        }
      ],
      "name": "placeSellOrders",
      "outputs": [
        {
          "internalType": "uint64",
          "name": "userId",
          "type": "uint64"
        }
      ],
      "stateMutability": "nonpayable",
      "type": "function"
    },
    {
      "inputs": [
        {
          "internalType": "uint256",
          "name": "auctionId",
          "type": "uint256"
        },
        {
          "internalType": "uint96[]",
          "name": "_minBuyAmounts",
          "type": "uint96[]"
        },
        {
          "internalType": "uint96[]",
          "name": "_sellAmounts",
          "type": "uint96[]"
        },
        {
          "internalType": "bytes32[]",
          "name": "_prevSellOrders",
          "type": "bytes32[]"
        },
        {
          "internalType": "address",
          "name": "orderSubmitter",
          "type": "address"
        },
        {
          "internalType": "string",
          "name": "referralCode",
          "type": "string"
        }
      ],
      "name": "placeSellOrdersOnBehalf",
      "outputs": [
        {
          "internalType": "uint64",
          "name": "userId",
          "type": "uint64"
        }
      ],
      "stateMutability": "nonpayable",
      "type": "function"
    },
    {
      "inputs": [
        {
          "internalType": "uint256",
          "name": "auctionId",
          "type": "uint256"
        },
        {
          "internalType": "uint256",
          "name": "iterationSteps",
          "type": "uint256"
        }
      ],
      "name": "precalculateSellAmountSum",
      "outputs": [],
      "stateMutability": "nonpayable",
      "type": "function"
    },
    {
      "inputs": [
        {
          "internalType": "uint256",
          "name": "",
          "type": "uint256"
        }
      ],
      "name": "referralFeeNumerator",
      "outputs": [
        {
          "internalType": "uint256",
          "name": "",
          "type": "uint256"
        }
      ],
      "stateMutability": "view",
      "type": "function"
    },
    {
      "inputs": [],
      "name": "referralRewardManager",
      "outputs": [
        {
          "internalType": "contract IReferralRewardManager",
          "name": "",
          "type": "address"
        }
      ],
      "stateMutability": "view",
      "type": "function"
    },
    {
      "inputs": [
        {
          "internalType": "uint256",
          "name": "",
          "type": "uint256"
        },
        {
          "internalType": "bytes32",
          "name": "",
          "type": "bytes32"
        }
      ],
      "name": "referrals",
      "outputs": [
        {
          "internalType": "string",
          "name": "",
          "type": "string"
        }
      ],
      "stateMutability": "view",
      "type": "function"
    },
    {
      "inputs": [
        {
          "internalType": "address",
          "name": "user",
          "type": "address"
        }
      ],
      "name": "registerUser",
      "outputs": [
        {
          "internalType": "uint64",
          "name": "userId",
          "type": "uint64"
        }
      ],
      "stateMutability": "nonpayable",
      "type": "function"
    },
    {
      "inputs": [],
      "name": "renounceOwnership",
      "outputs": [],
      "stateMutability": "nonpayable",
      "type": "function"
    },
    {
      "inputs": [
        {
          "internalType": "uint256",
          "name": "auctionId",
          "type": "uint256"
        },
        {
          "internalType": "uint256",
          "name": "newFeeNumerator",
          "type": "uint256"
        },
        {
          "internalType": "address",
          "name": "newfeeReceiverAddress",
          "type": "address"
        }
      ],
      "name": "setFeeParameters",
      "outputs": [],
      "stateMutability": "nonpayable",
      "type": "function"
    },
    {
      "inputs": [
        {
          "internalType": "uint256",
          "name": "auctionId",
          "type": "uint256"
        }
      ],
      "name": "settleAuction",
      "outputs": [
        {
          "internalType": "bytes32",
          "name": "clearingOrder",
          "type": "bytes32"
        }
      ],
      "stateMutability": "nonpayable",
      "type": "function"
    },
    {
      "inputs": [
        {
          "internalType": "address",
          "name": "newOwner",
          "type": "address"
        }
      ],
      "name": "transferOwnership",
      "outputs": [],
      "stateMutability": "nonpayable",
      "type": "function"
    }
  ],
  "transactionHash": "0xd57b4009f0756062f8fb66f96f90ee4263ff15f086670f09c75bb1f1773061d1",
  "args": [
    "0xe7f1725E7734CE288F8367e1Bb143E90bb3F0512",
    "0x9fE46736679d2D9a65F0992F2272dE9f3c7fa6e0"
  ],
  "numDeployments": 1,
  "solcInputHash": "d4e9ae7c43b28288ceb9c390effeb74f",
  "bytecode": "0x60806040526014600355600c80546001600160401b03191660011790553480156200002957600080fd5b5060405162003def38038062003def8339810160408190526200004c9162000149565b6200005733620000e0565b6001600160a01b038216620000975760405162461bcd60e51b8152602060048201526002602482015261453560f01b604482015260640160405180910390fd5b600580546001600160a01b039384166001600160a01b0319909116179055600c8054919092166801000000000000000002600160401b600160e01b031990911617905562000188565b600080546001600160a01b038381166001600160a01b0319831681178455604051919092169283917f8be0079c531659141344cd1fd0a4f28419497f9722a3daafe3b4186f6b6457e09190a35050565b6001600160a01b03811681146200014657600080fd5b50565b600080604083850312156200015d57600080fd5b82516200016a8162000130565b60208401519092506200017d8162000130565b809150509250929050565b613c5780620001986000396000f3fe608060405234801561001057600080fd5b50600436106101585760003560e01c8063639b02d7116100c35780638da5cb5b1161007c5780638da5cb5b1461040a578063a2b2a3161461041b578063a7e766441461042e578063ba8fe75f14610437578063d73792a91461044a578063f2fde38b1461045357600080fd5b8063639b02d71461036e57806363c699a41461038e578063715018a6146103b15780637aea2424146103b95780637ed18b70146103cc578063801140c4146103df57600080fd5b80632e993611116101155780632e993611146102075780633e12905f1461021a578063414d3ecf1461022f57806355fc62d2146102425780635825313c1461033b5780635cefb2911461035b57600080fd5b8063083fa53e1461015d57806315d37b4b1461018d5780631656151e146101ae57806319a50f49146101ce5780632199d5cd146101e15780632b956ff7146101f4575b600080fd5b61017061016b3660046132ee565b610466565b6040516001600160401b0390911681526020015b60405180910390f35b6101a061019b3660046133bd565b610596565b604051908152602001610184565b6101c16101bc3660046133d6565b6105d9565b6040516101849190613448565b600a54610170906001600160401b031681565b6101706101ef36600461347b565b61067e565b61017061020236600461347b565b610753565b6101a06102153660046133bd565b6107d6565b61022d6102283660046133d6565b610b52565b005b61022d61023d366004613498565b610cf8565b6102cc6102503660046133bd565b600760208190526000918252604090912080546001820154600283015460038401546004850154600586015460068701549787015460088801546009890154600a909901546001600160a01b039889169a97909816989597949693959294919290916001600160601b0382169160ff600160601b90910416908c565b604080516001600160a01b039d8e1681529c909b1660208d0152998b019890985260608a0196909652608089019490945260a088019290925260c087015260e08601526101008501526001600160601b0316610120840152151561014083015261016082015261018001610184565b6101a06103493660046133bd565b60016020526000908152604090205481565b600c54610170906001600160401b031681565b6101a061037c3660046133bd565b60026020526000908152604090205481565b6103a161039c3660046133d6565b610d3d565b6040519015158152602001610184565b61022d610d5c565b61022d6103c736600461359f565b610d70565b61022d6103da36600461359f565b611083565b6005546103f2906001600160a01b031681565b6040516001600160a01b039091168152602001610184565b6000546001600160a01b03166103f2565b6101a06104293660046135fc565b611287565b6101a0600b5481565b6101706104453660046136f1565b6118f2565b6101a06103e881565b61022d61046136600461347b565b611a2f565b6000898152600760205260408120600301548a9042106104b25760405162461bcd60e51b8152602060048201526002602482015261453160f01b60448201526064015b60405180910390fd5b6105878b8b8b8080602002602001604051908101604052809392919081815260200183836020028082843760009201919091525050604080516020808f0282810182019093528e82529093508e92508d91829185019084908082843760009201919091525050604080516020808e0282810182019093528d82529093508d92508c91829185019084908082843760009201919091525050604080516020601f8d018190048102820181019092528b815233935091508b908b9081908401838280828437600092019190915250611aa892505050565b9b9a5050505050505050505050565b6000818152600760205260408120600301544211156105b757506000919050565b6000828152600760205260409020600301546105d39042611f63565b92915050565b6004602090815260009283526040808420909152908252902080546105fd906137d4565b80601f0160208091040260200160405190810160405280929190818152602001828054610629906137d4565b80156106765780601f1061064b57610100808354040283529160200191610676565b820191906000526020600020905b81548152906001019060200180831161065957829003601f168201915b505050505081565b600a546000906106a19061069c906001600160401b03166001611f6f565b611f7b565b600a805467ffffffffffffffff19166001600160401b039290921691821790556106ce9060089084611fe3565b6107005760405162461bcd60e51b815260206004820152600360248201526245323560e81b60448201526064016104a9565b50600a546040516001600160401b03909116808252906001600160a01b038316907f6838f67cb358c332087b73dbe769a6c869a5f87225236c16dda5d0013a77074c9060200160405180910390a2919050565b6001600160a01b0381166000908152600960205260408120546001600160401b031615610785576105d36008836121a0565b61078e8261067e565b9050816001600160a01b0316816001600160401b03167f969d438b19b6b5fb3c0d3c6f16867e519fcec4233799d6be29d1c00f2045ba2660405160405180910390a35b919050565b600081815260076020526040812060030154829080158015906107f95750804210155b80156108145750600082815260076020526040902060080154155b6108455760405162461bcd60e51b8152602060048201526002602482015261453360f01b60448201526064016104a9565b506000838152600760208190526040822060048101546006820154919092015460c083901c93606084901c9392919080845b60008b815260066020526040812061088f9086612240565b90506001600160601b0381016108a557506108ee565b93506001600160601b03606085901c8116935084169150836108c78684611f6f565b95506108de90506001600160601b03871683612312565b6108e88685612312565b10610877575b600085118015610919575061090c6001600160601b03871683612312565b6109168685612312565b10155b156109d95760006109476109408561093a6001600160601b038b1687612312565b9061231e565b8790611f63565b90508083106109b057600061095c8483611f63565b90506109678161232a565b60008e815260076020526040902060090180546bffffffffffffffffffffffff19166001600160601b03929092169190911790556109a58783611f63565b9650859b50506109d3565b6109ba8684611f63565b95506109d06000886109cb8961232a565b61238e565b9a505b50610a42565b866001600160601b0316851115610a00576109f96000876109cb8861232a565b9950610a42565b610a0c6000878961238e565b9950610a3f610a3a886001600160601b031661093a896001600160601b03168961231290919063ffffffff16565b61232a565b90505b60008b8152600760205260409020600881018b9055600a0154851015610a855760008b8152600760205260409020600901805460ff60601b1916600160601b1790555b610a9a8b826001600160601b03168a896123d9565b6000808060c08d901c60608e901c8e604080516001600160601b0380851682528084166020830152808a1692820192909252908c16606082015292955090935091506001600160401b038416908f907fc56baaf7f9ced7b333accf3ba9c678d3ca955eb354691e6592660740e938d07a9060800160405180910390a350505060009a8b5250506007602081905260408a20600481018b90559081018a9055600681018a90556005019890985550949695505050505050565b60008281526007602052604090206003015482908015801590610b755750804210155b8015610b905750600082815260076020526040902060080154155b610bc15760405162461bcd60e51b8152602060048201526002602482015261453360f01b60448201526064016104a9565b506000838152600760208190526040822060048101546006820154919092015491929091905b85811015610c33576000878152600660205260409020610c079083612240565b915081610c1d846001600160601b038316611f6f565b9350508080610c2b90613824565b915050610be7565b506001600160601b038101610c705760405162461bcd60e51b815260206004820152600360248201526204532360ec1b60448201526064016104a9565b606081901c81610c8c6001600160601b03868116908316612312565b610c9f856001600160601b038516612312565b10610cd25760405162461bcd60e51b815260206004820152600360248201526245323160e81b60448201526064016104a9565b505060009586526007602081905260409096206006810192909255940193909355505050565b610d0061250d565b6014821115610d365760405162461bcd60e51b8152602060048201526002602482015261229b60f11b60448201526064016104a9565b5060035550565b6000828152600660205260408120610d559083612567565b9392505050565b610d6461250d565b610d6e6000612590565b565b6000828152600760205260409020600801548290610db55760405162461bcd60e51b8152602060048201526002602482015261114d60f21b60448201526064016104a9565b6000806000610de785600081518110610dd057610dd061383d565b602002602001015160c081901c91606082901c9190565b5050905060005b8551811015610eb2576000610e0e878381518110610dd057610dd061383d565b50509050826001600160401b0316816001600160401b031614610e595760405162461bcd60e51b815260206004820152600360248201526245323360e81b60448201526064016104a9565b600080610e7f8a8a8681518110610e7257610e7261383d565b60200260200101516125e0565b9092509050610e8e8783611f6f565b9650610e9a8682611f6f565b95505050508080610eaa90613824565b915050610dee565b506000868152600160205260409020548315801590610ed15750600181115b1561106e576000610ee36008846128e5565b600c546040516333f0330d60e21b815260048101859052919250600091600160401b9091046001600160a01b03169063cfc0cc349060240160408051808303816000875af1158015610f39573d6000803e3d6000fd5b505050506040513d601f19601f82011682018060405250810190610f5d9190613863565b5160008a8152600760205260409081902054905163a9059cbb60e01b81526001600160a01b038084166004830152602482018a905292935091169063a9059cbb906044016020604051808303816000875af1158015610fc0573d6000803e3d6000fd5b505050506040513d601f19601f82011682018060405250810190610fe491906138bf565b506000898152600760205260409081902054905163b1c7387760e01b8152600481018890526001600160a01b039182166024820152604481018b905283821660648201529082169063b1c7387790608401600060405180830381600087803b15801561104f57600080fd5b505af1158015611063573d6000803e3d6000fd5b505050506000955050505b61107a87858585612975565b50505050505050565b600082815260076020526040902060020154829042106110ca5760405162461bcd60e51b8152602060048201526002602482015261229960f11b60448201526064016104a9565b60006110d533610753565b90506000805b84518110156112595760046000878152602001908152602001600020600086838151811061110b5761110b61383d565b60200260200101518152602001908152602001600020600061112d9190613218565b600061116d8683815181106111445761114461383d565b6020026020010151600660008a81526020019081526020016000206129f590919063ffffffff16565b9050801561124657600080600061118f898681518110610dd057610dd061383d565b925092509250866001600160401b0316836001600160401b0316146111dc5760405162461bcd60e51b815260206004820152600360248201526222991960e91b60448201526064016104a9565b6111ef866001600160601b038316611f6f565b604080516001600160601b038086168252841660208201529197506001600160401b038916918c917f7edae327fe79804b2f38bd490d874a0d188d3ae8911b303205abe47400086ac4910160405180910390a35050505b508061125181613824565b9150506110db565b50600085815260076020526040902060010154611280906001600160a01b03163383612a4a565b5050505050565b60008161012001516000146112e2576112e233306112cf6103e861093a6112bb6003546103e8611f6f90919063ffffffff16565b60808901516001600160601b031690612312565b85516001600160a01b0316929190612ab2565b600b546112f0906001611f6f565b600b556101208201516001101561142657600c546101208301516040516333f0330d60e21b81526004810191909152600091600160401b90046001600160a01b03169063cfc0cc349060240160408051808303816000875af115801561135a573d6000803e3d6000fd5b505050506040513d601f19601f8201168201806040525081019061137e9190613863565b905080602001516113b65760405162461bcd60e51b8152602060048201526002602482015261453760f01b60448201526064016104a9565b8051600b54845161014086015160405163b88d7f2f60e01b81526001600160a01b039094169363b88d7f2f936113f293909290916004016138da565b600060405180830381600087803b15801561140c57600080fd5b505af1158015611420573d6000803e3d6000fd5b50505050505b606482610100015111156114615760405162461bcd60e51b815260206004820152600260248201526108a760f31b60448201526064016104a9565b600082608001516001600160601b0316116114a35760405162461bcd60e51b8152602060048201526002602482015261453960f01b60448201526064016104a9565b60008260a001516001600160601b0316116114e65760405162461bcd60e51b815260206004820152600360248201526204531360ec1b60448201526064016104a9565b60008260c00151116115205760405162461bcd60e51b815260206004820152600360248201526245313160e81b60448201526064016104a9565b81606001518260400151111561155e5760405162461bcd60e51b815260206004820152600360248201526222989960e91b60448201526064016104a9565b428260600151116115975760405162461bcd60e51b815260206004820152600360248201526245313360e81b60448201526064016104a9565b6101208201511580156115b457506000546001600160a01b031633145b806115c457506000826101200151115b6115f65760405162461bcd60e51b8152602060048201526003602482015262114c4d60ea1b60448201526064016104a9565b600b54600090815260066020908152604080832060018085528184528285206bfffffffffffffffffffffffe1990819055855290810190925282205561163b33610753565b905060405180610180016040528084600001516001600160a01b0316815260200184602001516001600160a01b031681526020018460400151815260200184606001518152602001611696838660a00151876080015161238e565b81526020018460c00151815260200160008152602001600160001b81526020016000801b815260200160006001600160601b031681526020016000151581526020018460e0015181525060076000600b54815260200190815260200160002060008201518160000160006101000a8154816001600160a01b0302191690836001600160a01b0316021790555060208201518160010160006101000a8154816001600160a01b0302191690836001600160a01b0316021790555060408201518160020155606082015181600301556080820151816004015560a0820151816005015560c0820151816006015560e0820151816007015561010082015181600801556101208201518160090160006101000a8154816001600160601b0302191690836001600160601b0316021790555061014082015181600901600c6101000a81548160ff02191690831515021790555061016082015181600a015590505082610120015160016000600b5481526020019081526020016000208190555082610100015160026000600b5481526020019081526020016000208190555082602001516001600160a01b031683600001516001600160a01b0316600b547ffec6eef7a5ce1cc0753a6fa3f13dafcf6416133a964f6566edb8574b7a759b09866040015187606001518689608001518a60a001518b60c001518c60e001516040516118e0979695949392919096875260208701959095526001600160401b039390931660408601526001600160601b03918216606086015216608084015260a083015260c082015260e00190565b60405180910390a45050600b54919050565b60008a8152600760205260408120600301548b9042106119395760405162461bcd60e51b8152602060048201526002602482015261453160f01b60448201526064016104a9565b611a1f8c8c8c80806020026020016040519081016040528093929190818152602001838360200280828437600081840152601f19601f820116905080830192505050505050508b8b8080602002602001604051908101604052809392919081815260200183836020028082843760009201919091525050604080516020808f0282810182019093528e82529093508e92508d91829185019084908082843760009201919091525050604080516020601f8d018190048102820181019092528b81528d935091508b908b9081908401838280828437600092019190915250611aa892505050565b9c9b505050505050505050505050565b611a3761250d565b6001600160a01b038116611a9c5760405162461bcd60e51b815260206004820152602660248201527f4f776e61626c653a206e6577206f776e657220697320746865207a65726f206160448201526564647265737360d01b60648201526084016104a9565b611aa581612590565b50565b600086815260076020526040812060040154606081901c90825b8851811015611b8c57611b09888281518110611ae057611ae061383d565b60200260200101516001600160601b0316836001600160601b031661231290919063ffffffff16565b611b47846001600160601b03168b8481518110611b2857611b2861383d565b60200260200101516001600160601b031661231290919063ffffffff16565b10611b7a5760405162461bcd60e51b815260206004820152600360248201526222989b60e91b60448201526064016104a9565b80611b8481613824565b915050611ac2565b5050506000611b9a84610753565b6000898152600760205260408120600501549193505b8851811015611f2f576000898281518110611bcd57611bcd61383d565b60200260200101516001600160601b031611611c115760405162461bcd60e51b815260206004820152600360248201526245313560e81b60448201526064016104a9565b81888281518110611c2457611c2461383d565b60200260200101516001600160601b031611611c685760405162461bcd60e51b815260206004820152600360248201526245313760e81b60448201526064016104a9565b6000611ca7858b8481518110611c8057611c8061383d565b60200260200101518b8581518110611c9a57611c9a61383d565b602002602001015161238e565b9050611ce981898481518110611cbf57611cbf61383d565b6020026020010151600660008f8152602001908152602001600020612af09092919063ffffffff16565b15611f1c57855115611e6c5760055460405163951f18ab60e01b81526001600160a01b039091169063951f18ab90611d25908990600401613448565b602060405180830381865afa158015611d42573d6000803e3d6000fd5b505050506040513d601f19601f82011682018060405250810190611d6691906138bf565b611d985760405162461bcd60e51b815260206004820152600360248201526208a62760eb1b60448201526064016104a9565b60055460405163eaf928b960e01b81526001600160a01b03808a1692169063eaf928b990611dca908a90600401613448565b602060405180830381865afa158015611de7573d6000803e3d6000fd5b505050506040513d601f19601f82011682018060405250810190611e0b9190613939565b6001600160a01b031603611e475760405162461bcd60e51b815260206004820152600360248201526245313960e81b60448201526064016104a9565b60008b81526004602090815260408083208484529091529020611e6a87826139a4565b505b611ea1898381518110611e8157611e8161383d565b60200260200101516001600160601b031685611f6f90919063ffffffff16565b9350846001600160401b03168b7fe86f1d514a4a988ca372aed576b30558ff6ae931da670be97c9964caad19c5f48c8581518110611ee157611ee161383d565b60200260200101518c8681518110611efb57611efb61383d565b60200260200101518a604051611f1393929190613a63565b60405180910390a35b5080611f2781613824565b915050611bb0565b50600089815260076020526040902060010154611f57906001600160a01b0316333085612ab2565b50509695505050505050565b6000610d558284613a98565b6000610d558284613aab565b6000600160401b8210611fdf5760405162461bcd60e51b815260206004820152602660248201527f53616665436173743a2076616c756520646f65736e27742066697420696e203660448201526534206269747360d01b60648201526084016104a9565b5090565b60006001600160a01b03821661203b5760405162461bcd60e51b815260206004820152601a60248201527f43616e6e6f7420696e73657274207a65726f206164647265737300000000000060448201526064016104a9565b67fffffffffffffffe196001600160401b0384160161209c5760405162461bcd60e51b815260206004820152601860248201527f43616e6e6f7420696e73657274206d61782075696e743634000000000000000060448201526064016104a9565b6001600160a01b03821660009081526001850160205260409020546001600160401b03161515806120fd5750600084816120d7866001613abe565b6001600160401b031681526020810191909152604001600020546001600160a01b031614155b1561210a57506000610d55565b81846000612119866001613abe565b6001600160401b03168152602081019190915260400160002080546001600160a01b0319166001600160a01b039290921691909117905561215b836001613abe565b6001600160a01b038316600090815260018681016020526040909120805467ffffffffffffffff19166001600160401b03939093169290921790915590509392505050565b6001600160a01b03811660009081526001830160205260408120546001600160401b03166122105760405162461bcd60e51b815260206004820152601b60248201527f4d7573742068617665204164647265737320746f20676574204944000000000060448201526064016104a9565b6001600160a01b03821660009081526001848101602052604090912054610d5591906001600160401b0316613ae5565b60006001600160601b0382016122a35760405162461bcd60e51b815260206004820152602260248201527f547279696e6720746f20676574206e657874206f66206c61737420656c656d656044820152611b9d60f21b60648201526084016104a9565b60008281526020849052604090205480610d555760405162461bcd60e51b815260206004820152602a60248201527f547279696e6720746f20676574206e657874206f66206e6f6e2d6578697374656044820152691b9d08195b195b595b9d60b21b60648201526084016104a9565b6000610d558284613b05565b6000610d558284613b1c565b6000600160601b8210611fdf5760405162461bcd60e51b815260206004820152602660248201527f53616665436173743a2076616c756520646f65736e27742066697420696e203960448201526536206269747360d01b60648201526084016104a9565b60006001600160601b0382166123c76bffffffffffffffffffffffff60601b606086901b166001600160c01b031960c088901b16613aab565b6123d19190613aab565b949350505050565b60006123ff6103e861093a600354856001600160601b031661231290919063ffffffff16565b600086815260076020526040902060090154909150600160601b900460ff1615612447576124428561243a6001600160601b03851684611f6f565b600086612975565b611280565b600085815260076020526040812060080154606081901c916124726001600160601b03861688611f63565b905060006124976124906001600160601b03881661093a8886612312565b8390611f6f565b905060006124c4856001600160601b031661093a866001600160601b03168c61231290919063ffffffff16565b90506124d28a83838b612975565b6125018a6124ed6001600160601b038a1661093a8a8e612312565b600c546000906001600160401b0316612975565b50505050505050505050565b6000546001600160a01b03163314610d6e5760405162461bcd60e51b815260206004820181905260248201527f4f776e61626c653a2063616c6c6572206973206e6f7420746865206f776e657260448201526064016104a9565b6000600019820161257a575060006105d3565b5060009081526020919091526040902054151590565b600080546001600160a01b038381166001600160a01b0319831681178455604051919092169283917f8be0079c531659141344cd1fd0a4f28419497f9722a3daafe3b4186f6b6457e09190a35050565b600082815260066020526040812081906125fa9084612c9f565b61262c5760405162461bcd60e51b8152602060048201526003602482015262114c8d60ea1b60448201526064016104a9565b600084815260076020818152604080842081516101808101835281546001600160a01b039081168252600183015416938101939093526002810154918301919091526003810154606083015260048101546080830152600581015460a0830152600681015460c08301529182015460e08201526008820154610100820181905260098301546001600160601b03811661012084015260ff600160601b909104161515610140830152600a90920154610160820152919081906126f79060c081901c91606082901c9190565b6101408601519194509250905060c087901c606088811c908990600085156127335761272c8a6001600160601b038516611f6f565b995061281e565b8861010001518c036127b657612780612779886001600160601b031661093a8b6001600160601b03168d61012001516001600160601b031661231290919063ffffffff16565b8c90611f6f565b9a5061272c6127af8a61012001516001600160601b0316856001600160601b0316611f6390919063ffffffff16565b8b90611f6f565b6101008901516127c7908d90612ccb565b1561280857612801612779886001600160601b031661093a8b6001600160601b0316876001600160601b031661231290919063ffffffff16565b9a5061281e565b61281b8a6001600160601b038516611f6f565b99505b8a1561283e57612838836001600160601b03168e8e612e67565b90925090505b6128488a82611f63565b99507f46fe9103ac30a862896b36f24f2466c9e318af942420da72a3427c9e632aff4c6040518061010001604052808f8152602001876001600160401b03168152602001866001600160601b03168152602001856001600160601b031681526020018481526020018381526020018d81526020018c8152506040516128cd9190613b3e565b60405180910390a15050505050505050509250929050565b60006128f18383612fe4565b61293d5760405162461bcd60e51b815260206004820152601b60248201527f4d757374206861766520494420746f206765742041646472657373000000000060448201526064016104a9565b82600061294b846001613abe565b6001600160401b031681526020810191909152604001600020546001600160a01b03169392505050565b60006129826008836128e5565b90506000841180156129a1575060008581526001602052604090205415155b156129c9576000858152600760205260409020546129c9906001600160a01b03168286612a4a565b821561128057600085815260076020526040902060010154611280906001600160a01b03168285612a4a565b6000612a018383612567565b612a0d575060006105d3565b5060008181526001838101602081815260408085205487835281862080548288528388208190558752938352908520559383529390925290915590565b6040516001600160a01b038316602482015260448101829052612aad90849063a9059cbb60e01b906064015b60408051601f198184030181529190526020810180516001600160e01b03166001600160e01b031990931692909217909152613020565b505050565b6040516001600160a01b0380851660248301528316604482015260648101829052612aea9085906323b872dd60e01b90608401612a76565b50505050565b6000826001600160601b038116612b495760405162461bcd60e51b815260206004820152601f60248201527f496e73657274696e67207a65726f206973206e6f7420737570706f727465640060448201526064016104a9565b60018414801590612b6757506bfffffffffffffffffffffffe198414155b612bb35760405162461bcd60e51b815260206004820152601e60248201527f496e73657274696e6720656c656d656e74206973206e6f742076616c6964000060448201526064016104a9565b612bbd8585612567565b15612bcc576000915050610d55565b60018314801590612beb57506000838152600186016020526040902054155b15612bfa576000915050610d55565b612c048385612ccb565b612c12576000915050610d55565b5b600083815260208690526040902054612c3e5760009283526001850160205260409092205491612c13565b6000835b600081815260208890526040902054909150612c5e8187612ccb565b612c42576000828152602088815260408083208990558383526001808b0183528184208a905589845281842095909555908990529020559150509392505050565b600080612cac84846129f5565b90508015610d5557600092835260019390930160205250604081205590565b600060c083811c90606085811c9186919086901c9086901c86612cfa6001600160601b03808416908616612312565b612d106001600160601b03878116908416612312565b1015612d2557600196505050505050506105d3565b612d3b6001600160601b03838116908616612312565b612d516001600160601b03878116908416612312565b1115612d6657600096505050505050506105d3565b816001600160601b0316856001600160601b03161015612d8f57600196505050505050506105d3565b816001600160601b0316856001600160601b03161115612db857600096505050505050506105d3565b826001600160401b0316866001600160401b031603612e2f5760405162461bcd60e51b815260206004820152602d60248201527f75736572206973206e6f7420616c6c6f77656420746f20706c6163652073616d60448201526c65206f7264657220747769636560981b60648201526084016104a9565b826001600160401b0316866001600160401b03161015612e5857600196505050505050506105d3565b50600098975050505050505050565b6000828152600460209081526040808320848452909152812080546060929190612e90906137d4565b80601f0160208091040260200160405190810160405280929190818152602001828054612ebc906137d4565b8015612f095780601f10612ede57610100808354040283529160200191612f09565b820191906000526020600020905b815481529060010190602001808311612eec57829003601f168201915b50505050509150600082511115612fdc57600084815260026020526040902054612f3c906103e89061093a908890612312565b600554909150600090612f57906001600160a01b0316610753565b9050612f668560008484612975565b6005546000868152600760205260409081902054905162fc976160e01b81526001600160a01b039283169262fc976192612fa892889288921690600401613bd2565b600060405180830381600087803b158015612fc257600080fd5b505af1158015612fd6573d6000803e3d6000fd5b50505050505b935093915050565b6000808381612ff4856001613abe565b6001600160401b031681526020810191909152604001600020546001600160a01b031614159392505050565b6000613075826040518060400160405280602081526020017f5361666545524332303a206c6f772d6c6576656c2063616c6c206661696c6564815250856001600160a01b03166130f59092919063ffffffff16565b905080516000148061309657508080602001905181019061309691906138bf565b612aad5760405162461bcd60e51b815260206004820152602a60248201527f5361666545524332303a204552433230206f7065726174696f6e20646964206e6044820152691bdd081cdd58d8d9595960b21b60648201526084016104a9565b60606123d1848460008585600080866001600160a01b0316858760405161311c9190613c05565b60006040518083038185875af1925050503d8060008114613159576040519150601f19603f3d011682016040523d82523d6000602084013e61315e565b606091505b509150915061316f8783838761317a565b979650505050505050565b606083156131e95782516000036131e2576001600160a01b0385163b6131e25760405162461bcd60e51b815260206004820152601d60248201527f416464726573733a2063616c6c20746f206e6f6e2d636f6e747261637400000060448201526064016104a9565b50816123d1565b6123d183838151156131fe5781518083602001fd5b8060405162461bcd60e51b81526004016104a99190613448565b508054613224906137d4565b6000825580601f10613234575050565b601f016020900490600052602060002090810190611aa591905b80821115611fdf576000815560010161324e565b60008083601f84011261327457600080fd5b5081356001600160401b0381111561328b57600080fd5b6020830191508360208260051b85010111156132a657600080fd5b9250929050565b60008083601f8401126132bf57600080fd5b5081356001600160401b038111156132d657600080fd5b6020830191508360208285010111156132a657600080fd5b600080600080600080600080600060a08a8c03121561330c57600080fd5b8935985060208a01356001600160401b038082111561332a57600080fd5b6133368d838e01613262565b909a50985060408c013591508082111561334f57600080fd5b61335b8d838e01613262565b909850965060608c013591508082111561337457600080fd5b6133808d838e01613262565b909650945060808c013591508082111561339957600080fd5b506133a68c828d016132ad565b915080935050809150509295985092959850929598565b6000602082840312156133cf57600080fd5b5035919050565b600080604083850312156133e957600080fd5b50508035926020909101359150565b60005b838110156134135781810151838201526020016133fb565b50506000910152565b600081518084526134348160208601602086016133f8565b601f01601f19169290920160200192915050565b602081526000610d55602083018461341c565b6001600160a01b0381168114611aa557600080fd5b80356107d18161345b565b60006020828403121561348d57600080fd5b8135610d558161345b565b6000806000606084860312156134ad57600080fd5b833592506020840135915060408401356134c68161345b565b809150509250925092565b634e487b7160e01b600052604160045260246000fd5b60405161016081016001600160401b038111828210171561350a5761350a6134d1565b60405290565b600082601f83011261352157600080fd5b813560206001600160401b038083111561353d5761353d6134d1565b8260051b604051601f19603f83011681018181108482111715613562576135626134d1565b60405293845285810183019383810192508785111561358057600080fd5b83870191505b8482101561316f57813583529183019190830190613586565b600080604083850312156135b257600080fd5b8235915060208301356001600160401b038111156135cf57600080fd5b6135db85828601613510565b9150509250929050565b80356001600160601b03811681146107d157600080fd5b60006020828403121561360e57600080fd5b81356001600160401b038082111561362557600080fd5b90830190610160828603121561363a57600080fd5b6136426134e7565b61364b83613470565b815261365960208401613470565b6020820152604083013560408201526060830135606082015261367e608084016135e5565b608082015261368f60a084016135e5565b60a082015260c083013560c082015260e083013560e082015261010080840135818301525061012080840135818301525061014080840135838111156136d457600080fd5b6136e088828701613510565b918301919091525095945050505050565b60008060008060008060008060008060c08b8d03121561371057600080fd5b8a35995060208b01356001600160401b038082111561372e57600080fd5b61373a8e838f01613262565b909b50995060408d013591508082111561375357600080fd5b61375f8e838f01613262565b909950975060608d013591508082111561377857600080fd5b6137848e838f01613262565b909750955085915061379860808e01613470565b945060a08d01359150808211156137ae57600080fd5b506137bb8d828e016132ad565b915080935050809150509295989b9194979a5092959850565b600181811c908216806137e857607f821691505b60208210810361380857634e487b7160e01b600052602260045260246000fd5b50919050565b634e487b7160e01b600052601160045260246000fd5b6000600182016138365761383661380e565b5060010190565b634e487b7160e01b600052603260045260246000fd5b805180151581146107d157600080fd5b60006040828403121561387557600080fd5b604051604081018181106001600160401b0382111715613897576138976134d1565b60405282516138a58161345b565b81526138b360208401613853565b60208201529392505050565b6000602082840312156138d157600080fd5b610d5582613853565b8381526001600160a01b0383166020808301919091526060604083018190528351908301819052600091848101916080850190845b8181101561392b5784518352938301939183019160010161390f565b509098975050505050505050565b60006020828403121561394b57600080fd5b8151610d558161345b565b601f821115612aad57600081815260208120601f850160051c8101602086101561397d5750805b601f850160051c820191505b8181101561399c57828155600101613989565b505050505050565b81516001600160401b038111156139bd576139bd6134d1565b6139d1816139cb84546137d4565b84613956565b602080601f831160018114613a0657600084156139ee5750858301515b600019600386901b1c1916600185901b17855561399c565b600085815260208120601f198616915b82811015613a3557888601518255948401946001909101908401613a16565b5085821015613a535787850151600019600388901b60f8161c191681555b5050505050600190811b01905550565b60006001600160601b03808616835280851660208401525060606040830152613a8f606083018461341c565b95945050505050565b818103818111156105d3576105d361380e565b808201808211156105d3576105d361380e565b6001600160401b03818116838216019080821115613ade57613ade61380e565b5092915050565b6001600160401b03828116828216039080821115613ade57613ade61380e565b80820281158282048414176105d3576105d361380e565b600082613b3957634e487b7160e01b600052601260045260246000fd5b500490565b60208152815160208201526001600160401b0360208301511660408201526001600160601b03604083015116606082015260006060830151613b8b60808401826001600160601b03169052565b5060808301516101008060a0850152613ba861012085018361341c565b915060a085015160c085015260c085015160e085015260e085015181850152508091505092915050565b606081526000613be5606083018661341c565b6020830194909452506001600160a01b0391909116604090910152919050565b60008251613c178184602087016133f8565b919091019291505056fea2646970667358221220fae5e457298793dc00dedd656a5bcf49e9a2d300a2b8972f4b8884ba74582a4d64736f6c63430008140033",
  "devdoc": {
    "kind": "dev",
    "methods": {
      "owner()": {
        "details": "Returns the address of the current owner."
      },
      "renounceOwnership()": {
        "details": "Leaves the contract without owner. It will not be possible to call `onlyOwner` functions. Can only be called by the current owner. NOTE: Renouncing ownership will leave the contract without an owner, thereby disabling any functionality that is only available to the owner."
      },
      "transferOwnership(address)": {
        "details": "Transfers ownership of the contract to a new account (`newOwner`). Can only be called by the current owner."
      }
    },
    "version": 1
  },
  "userdoc": {
    "kind": "user",
    "methods": {},
    "version": 1
  },
  "storageLayout": {
    "storage": [
      {
        "astId": 396,
        "contract": "contracts/EasyAuction.sol:EasyAuction",
        "label": "_owner",
        "offset": 0,
        "slot": "0",
        "type": "t_address"
      },
      {
        "astId": 3709,
        "contract": "contracts/EasyAuction.sol:EasyAuction",
        "label": "auctionToStrategy",
        "offset": 0,
        "slot": "1",
        "type": "t_mapping(t_uint256,t_uint256)"
      },
      {
        "astId": 3713,
        "contract": "contracts/EasyAuction.sol:EasyAuction",
        "label": "referralFeeNumerator",
        "offset": 0,
        "slot": "2",
        "type": "t_mapping(t_uint256,t_uint256)"
      },
      {
        "astId": 3716,
        "contract": "contracts/EasyAuction.sol:EasyAuction",
        "label": "feeNumerator",
        "offset": 0,
        "slot": "3",
        "type": "t_uint256"
      },
      {
        "astId": 3722,
        "contract": "contracts/EasyAuction.sol:EasyAuction",
        "label": "referrals",
        "offset": 0,
        "slot": "4",
        "type": "t_mapping(t_uint256,t_mapping(t_bytes32,t_string_storage))"
      },
      {
        "astId": 3725,
        "contract": "contracts/EasyAuction.sol:EasyAuction",
        "label": "referralRewardManager",
        "offset": 0,
        "slot": "5",
        "type": "t_contract(IReferralRewardManager)6083"
      },
      {
        "astId": 3730,
        "contract": "contracts/EasyAuction.sol:EasyAuction",
        "label": "sellOrders",
        "offset": 0,
        "slot": "6",
        "type": "t_mapping(t_uint256,t_struct(Data)6311_storage)"
      },
      {
        "astId": 3735,
        "contract": "contracts/EasyAuction.sol:EasyAuction",
        "label": "auctionData",
        "offset": 0,
        "slot": "7",
        "type": "t_mapping(t_uint256,t_struct(AuctionData)5918_storage)"
      },
      {
        "astId": 3738,
        "contract": "contracts/EasyAuction.sol:EasyAuction",
        "label": "registeredUsers",
        "offset": 0,
        "slot": "8",
        "type": "t_struct(Data)6114_storage"
      },
      {
        "astId": 3740,
        "contract": "contracts/EasyAuction.sol:EasyAuction",
        "label": "numUsers",
        "offset": 0,
        "slot": "10",
        "type": "t_uint64"
      },
      {
        "astId": 3742,
        "contract": "contracts/EasyAuction.sol:EasyAuction",
        "label": "auctionCounter",
        "offset": 0,
        "slot": "11",
        "type": "t_uint256"
      },
      {
        "astId": 3748,
        "contract": "contracts/EasyAuction.sol:EasyAuction",
        "label": "feeReceiverUserId",
        "offset": 0,
        "slot": "12",
        "type": "t_uint64"
      },
      {
        "astId": 3751,
        "contract": "contracts/EasyAuction.sol:EasyAuction",
        "label": "strategyManager",
        "offset": 8,
        "slot": "12",
        "type": "t_contract(IStrategyManager)7176"
      }
    ],
    "types": {
      "t_address": {
        "encoding": "inplace",
        "label": "address",
        "numberOfBytes": "20"
      },
      "t_bool": {
        "encoding": "inplace",
        "label": "bool",
        "numberOfBytes": "1"
      },
      "t_bytes32": {
        "encoding": "inplace",
        "label": "bytes32",
        "numberOfBytes": "32"
      },
      "t_contract(IERC20)1231": {
        "encoding": "inplace",
        "label": "contract IERC20",
        "numberOfBytes": "20"
      },
      "t_contract(IReferralRewardManager)6083": {
        "encoding": "inplace",
        "label": "contract IReferralRewardManager",
        "numberOfBytes": "20"
      },
      "t_contract(IStrategyManager)7176": {
        "encoding": "inplace",
        "label": "contract IStrategyManager",
        "numberOfBytes": "20"
      },
      "t_mapping(t_address,t_uint64)": {
        "encoding": "mapping",
        "key": "t_address",
        "label": "mapping(address => uint64)",
        "numberOfBytes": "32",
        "value": "t_uint64"
      },
      "t_mapping(t_bytes32,t_bytes32)": {
        "encoding": "mapping",
        "key": "t_bytes32",
        "label": "mapping(bytes32 => bytes32)",
        "numberOfBytes": "32",
        "value": "t_bytes32"
      },
      "t_mapping(t_bytes32,t_string_storage)": {
        "encoding": "mapping",
        "key": "t_bytes32",
        "label": "mapping(bytes32 => string)",
        "numberOfBytes": "32",
        "value": "t_string_storage"
      },
      "t_mapping(t_uint256,t_mapping(t_bytes32,t_string_storage))": {
        "encoding": "mapping",
        "key": "t_uint256",
        "label": "mapping(uint256 => mapping(bytes32 => string))",
        "numberOfBytes": "32",
        "value": "t_mapping(t_bytes32,t_string_storage)"
      },
      "t_mapping(t_uint256,t_struct(AuctionData)5918_storage)": {
        "encoding": "mapping",
        "key": "t_uint256",
        "label": "mapping(uint256 => struct IEasyAuction.AuctionData)",
        "numberOfBytes": "32",
        "value": "t_struct(AuctionData)5918_storage"
      },
      "t_mapping(t_uint256,t_struct(Data)6311_storage)": {
        "encoding": "mapping",
        "key": "t_uint256",
        "label": "mapping(uint256 => struct IterableOrderedOrderSet.Data)",
        "numberOfBytes": "32",
        "value": "t_struct(Data)6311_storage"
      },
      "t_mapping(t_uint256,t_uint256)": {
        "encoding": "mapping",
        "key": "t_uint256",
        "label": "mapping(uint256 => uint256)",
        "numberOfBytes": "32",
        "value": "t_uint256"
      },
      "t_mapping(t_uint64,t_address)": {
        "encoding": "mapping",
        "key": "t_uint64",
        "label": "mapping(uint64 => address)",
        "numberOfBytes": "32",
        "value": "t_address"
      },
      "t_string_storage": {
        "encoding": "bytes",
        "label": "string",
        "numberOfBytes": "32"
      },
      "t_struct(AuctionData)5918_storage": {
        "encoding": "inplace",
        "label": "struct IEasyAuction.AuctionData",
        "members": [
          {
            "astId": 5894,
            "contract": "contracts/EasyAuction.sol:EasyAuction",
            "label": "auctioningToken",
            "offset": 0,
            "slot": "0",
            "type": "t_contract(IERC20)1231"
          },
          {
            "astId": 5897,
            "contract": "contracts/EasyAuction.sol:EasyAuction",
            "label": "biddingToken",
            "offset": 0,
            "slot": "1",
            "type": "t_contract(IERC20)1231"
          },
          {
            "astId": 5899,
            "contract": "contracts/EasyAuction.sol:EasyAuction",
            "label": "orderCancellationEndDate",
            "offset": 0,
            "slot": "2",
            "type": "t_uint256"
          },
          {
            "astId": 5901,
            "contract": "contracts/EasyAuction.sol:EasyAuction",
            "label": "auctionEndDate",
            "offset": 0,
            "slot": "3",
            "type": "t_uint256"
          },
          {
            "astId": 5903,
            "contract": "contracts/EasyAuction.sol:EasyAuction",
            "label": "initialAuctionOrder",
            "offset": 0,
            "slot": "4",
            "type": "t_bytes32"
          },
          {
            "astId": 5905,
            "contract": "contracts/EasyAuction.sol:EasyAuction",
            "label": "minimumBiddingAmountPerOrder",
            "offset": 0,
            "slot": "5",
            "type": "t_uint256"
          },
          {
            "astId": 5907,
            "contract": "contracts/EasyAuction.sol:EasyAuction",
            "label": "interimSumBidAmount",
            "offset": 0,
            "slot": "6",
            "type": "t_uint256"
          },
          {
            "astId": 5909,
            "contract": "contracts/EasyAuction.sol:EasyAuction",
            "label": "interimOrder",
            "offset": 0,
            "slot": "7",
            "type": "t_bytes32"
          },
          {
            "astId": 5911,
            "contract": "contracts/EasyAuction.sol:EasyAuction",
            "label": "clearingPriceOrder",
            "offset": 0,
            "slot": "8",
            "type": "t_bytes32"
          },
          {
            "astId": 5913,
            "contract": "contracts/EasyAuction.sol:EasyAuction",
            "label": "volumeClearingPriceOrder",
            "offset": 0,
            "slot": "9",
            "type": "t_uint96"
          },
          {
            "astId": 5915,
            "contract": "contracts/EasyAuction.sol:EasyAuction",
            "label": "minFundingThresholdNotReached",
            "offset": 12,
            "slot": "9",
            "type": "t_bool"
          },
          {
            "astId": 5917,
            "contract": "contracts/EasyAuction.sol:EasyAuction",
            "label": "minFundingThreshold",
            "offset": 0,
            "slot": "10",
            "type": "t_uint256"
          }
        ],
        "numberOfBytes": "352"
      },
      "t_struct(Data)6114_storage": {
        "encoding": "inplace",
        "label": "struct IdToAddressBiMap.Data",
        "members": [
          {
            "astId": 6109,
            "contract": "contracts/EasyAuction.sol:EasyAuction",
            "label": "idToAddress",
            "offset": 0,
            "slot": "0",
            "type": "t_mapping(t_uint64,t_address)"
          },
          {
            "astId": 6113,
            "contract": "contracts/EasyAuction.sol:EasyAuction",
            "label": "addressToId",
            "offset": 0,
            "slot": "1",
            "type": "t_mapping(t_address,t_uint64)"
          }
        ],
        "numberOfBytes": "64"
      },
      "t_struct(Data)6311_storage": {
        "encoding": "inplace",
        "label": "struct IterableOrderedOrderSet.Data",
        "members": [
          {
            "astId": 6306,
            "contract": "contracts/EasyAuction.sol:EasyAuction",
            "label": "nextMap",
            "offset": 0,
            "slot": "0",
            "type": "t_mapping(t_bytes32,t_bytes32)"
          },
          {
            "astId": 6310,
            "contract": "contracts/EasyAuction.sol:EasyAuction",
            "label": "prevMap",
            "offset": 0,
            "slot": "1",
            "type": "t_mapping(t_bytes32,t_bytes32)"
          }
        ],
        "numberOfBytes": "64"
      },
      "t_uint256": {
        "encoding": "inplace",
        "label": "uint256",
        "numberOfBytes": "32"
      },
      "t_uint64": {
        "encoding": "inplace",
        "label": "uint64",
        "numberOfBytes": "8"
      },
      "t_uint96": {
        "encoding": "inplace",
        "label": "uint96",
        "numberOfBytes": "12"
      }
    }
  }
}