{
  "address": "0xe7f1725E7734CE288F8367e1Bb143E90bb3F0512",
  "abi": [
    {
      "inputs": [],
      "stateMutability": "nonpayable",
      "type": "constructor"
    },
    {
      "anonymous": false,
      "inputs": [
        {
          "indexed": true,
          "internalType": "address",
          "name": "account",
          "type": "address"
        },
        {
          "indexed": false,
          "internalType": "uint256",
          "name": "amount",
          "type": "uint256"
        },
        {
          "indexed": false,
          "internalType": "address",
          "name": "token",
          "type": "address"
        }
      ],
      "name": "BalanceIncrease",
      "type": "event"
    },
    {
      "anonymous": false,
      "inputs": [
        {
          "indexed": true,
          "internalType": "address",
          "name": "account",
          "type": "address"
        },
        {
          "indexed": false,
          "internalType": "string",
          "name": "code",
          "type": "string"
        }
      ],
      "name": "CodeRegistered",
      "type": "event"
    },
    {
      "anonymous": false,
      "inputs": [
        {
          "indexed": true,
          "internalType": "address",
          "name": "previousOwner",
          "type": "address"
        },
        {
          "indexed": true,
          "internalType": "address",
          "name": "newOwner",
          "type": "address"
        }
      ],
      "name": "OwnershipTransferred",
      "type": "event"
    },
    {
      "anonymous": false,
      "inputs": [
        {
          "indexed": true,
          "internalType": "address",
          "name": "account",
          "type": "address"
        },
        {
          "indexed": false,
          "internalType": "uint256",
          "name": "amount",
          "type": "uint256"
        },
        {
          "indexed": false,
          "internalType": "address",
          "name": "token",
          "type": "address"
        }
      ],
      "name": "Withdraw",
      "type": "event"
    },
    {
      "inputs": [
        {
          "internalType": "string",
          "name": "_referralCode",
          "type": "string"
        },
        {
          "internalType": "uint256",
          "name": "_amount",
          "type": "uint256"
        },
        {
          "internalType": "address",
          "name": "_token",
          "type": "address"
        }
      ],
      "name": "addToBalance",
      "outputs": [],
      "stateMutability": "nonpayable",
      "type": "function"
    },
    {
      "inputs": [
        {
          "internalType": "address",
          "name": "",
          "type": "address"
        }
      ],
      "name": "addressToCode",
      "outputs": [
        {
          "internalType": "string",
          "name": "",
          "type": "string"
        }
      ],
      "stateMutability": "view",
      "type": "function"
    },
    {
      "inputs": [
        {
          "internalType": "address",
          "name": "_account",
          "type": "address"
        },
        {
          "internalType": "string",
          "name": "_code",
          "type": "string"
        }
      ],
      "name": "adminOverride",
      "outputs": [],
      "stateMutability": "nonpayable",
      "type": "function"
    },
    {
      "inputs": [],
      "name": "auction",
      "outputs": [
        {
          "internalType": "address",
          "name": "",
          "type": "address"
        }
      ],
      "stateMutability": "view",
      "type": "function"
    },
    {
      "inputs": [
        {
          "internalType": "address",
          "name": "",
          "type": "address"
        },
        {
          "internalType": "address",
          "name": "",
          "type": "address"
        }
      ],
      "name": "balances",
      "outputs": [
        {
          "internalType": "uint256",
          "name": "",
          "type": "uint256"
        }
      ],
      "stateMutability": "view",
      "type": "function"
    },
    {
      "inputs": [
        {
          "internalType": "string",
          "name": "",
          "type": "string"
        }
      ],
      "name": "codeToAddress",
      "outputs": [
        {
          "internalType": "address",
          "name": "",
          "type": "address"
        }
      ],
      "stateMutability": "view",
      "type": "function"
    },
    {
      "inputs": [
        {
          "internalType": "string",
          "name": "_code",
          "type": "string"
        }
      ],
      "name": "isCodeRegistered",
      "outputs": [
        {
          "internalType": "bool",
          "name": "",
          "type": "bool"
        }
      ],
      "stateMutability": "view",
      "type": "function"
    },
    {
      "inputs": [],
      "name": "openWithdraw",
      "outputs": [],
      "stateMutability": "nonpayable",
      "type": "function"
    },
    {
      "inputs": [],
      "name": "owner",
      "outputs": [
        {
          "internalType": "address",
          "name": "",
          "type": "address"
        }
      ],
      "stateMutability": "view",
      "type": "function"
    },
    {
      "inputs": [
        {
          "internalType": "string",
          "name": "referralCode",
          "type": "string"
        }
      ],
      "name": "referralCodeOwner",
      "outputs": [
        {
          "internalType": "address",
          "name": "",
          "type": "address"
        }
      ],
      "stateMutability": "view",
      "type": "function"
    },
    {
      "inputs": [
        {
          "internalType": "string",
          "name": "_code",
          "type": "string"
        }
      ],
      "name": "registerCode",
      "outputs": [],
      "stateMutability": "nonpayable",
      "type": "function"
    },
    {
      "inputs": [],
      "name": "renounceOwnership",
      "outputs": [],
      "stateMutability": "nonpayable",
      "type": "function"
    },
    {
      "inputs": [
        {
          "internalType": "address",
          "name": "_auction",
          "type": "address"
        }
      ],
      "name": "setAuction",
      "outputs": [],
      "stateMutability": "nonpayable",
      "type": "function"
    },
    {
      "inputs": [
        {
          "internalType": "address",
          "name": "newOwner",
          "type": "address"
        }
      ],
      "name": "transferOwnership",
      "outputs": [],
      "stateMutability": "nonpayable",
      "type": "function"
    },
    {
      "inputs": [
        {
          "internalType": "uint256",
          "name": "_amount",
          "type": "uint256"
        },
        {
          "internalType": "address",
          "name": "_token",
          "type": "address"
        }
      ],
      "name": "withdraw",
      "outputs": [],
      "stateMutability": "nonpayable",
      "type": "function"
    },
    {
      "inputs": [],
      "name": "withdrawOpen",
      "outputs": [
        {
          "internalType": "bool",
          "name": "",
          "type": "bool"
        }
      ],
      "stateMutability": "view",
      "type": "function"
    },
    {
      "stateMutability": "payable",
      "type": "receive"
    }
  ],
  "transactionHash": "0x2b6c47ca76a60a11d6338df2979014c14bbe193ad5522181895ffa6f17935fe7",
  "args": [],
  "numDeployments": 1,
  "solcInputHash": "d4e9ae7c43b28288ceb9c390effeb74f",
  "bytecode": "0x60806040526005805460ff60a01b1916905534801561001d57600080fd5b50600160005561002c33610031565b610083565b600180546001600160a01b038381166001600160a01b0319831681179093556040519116919082907f8be0079c531659141344cd1fd0a4f28419497f9722a3daafe3b4186f6b6457e090600090a35050565b61124a806100926000396000f3fe6080604052600436106100f55760003560e01c80639932dc051161008a578063d2a1945e11610059578063d2a1945e146102ed578063e177bb9b1461030d578063eaf928b91461032d578063f2fde38b1461034d57600080fd5b80639932dc0514610219578063b8c6f5791461025a578063c23f001f1461027a578063c4f74631146102c057600080fd5b80637d9f6db5116100c65780637d9f6db51461018e578063845105e2146101c65780638da5cb5b146101db578063951f18ab146101f957600080fd5b8062f714ce14610101578062fc976114610123578063302b260e14610143578063715018a61461017957600080fd5b366100fc57005b600080fd5b34801561010d57600080fd5b5061012161011c366004610da3565b61036d565b005b34801561012f57600080fd5b5061012161013e366004610e72565b6105fb565b34801561014f57600080fd5b5060055461016490600160a01b900460ff1681565b60405190151581526020015b60405180910390f35b34801561018557600080fd5b5061012161079d565b34801561019a57600080fd5b506005546101ae906001600160a01b031681565b6040516001600160a01b039091168152602001610170565b3480156101d257600080fd5b506101216107b1565b3480156101e757600080fd5b506001546001600160a01b03166101ae565b34801561020557600080fd5b50610164610214366004610ec9565b6107ce565b34801561022557600080fd5b506101ae610234366004610ec9565b80516020818301810180516002825292820191909301209152546001600160a01b031681565b34801561026657600080fd5b50610121610275366004610f06565b61080b565b34801561028657600080fd5b506102b2610295366004610f28565b600460209081526000928352604080842090915290825290205481565b604051908152602001610170565b3480156102cc57600080fd5b506102e06102db366004610f06565b610835565b6040516101709190610f76565b3480156102f957600080fd5b50610121610308366004610fa9565b6108cf565b34801561031957600080fd5b50610121610328366004610ec9565b6109b5565b34801561033957600080fd5b506101ae610348366004610ec9565b610bd8565b34801561035957600080fd5b50610121610368366004610f06565b610c09565b610375610c82565b600554600160a01b900460ff166103e45760405162461bcd60e51b815260206004820152602860248201527f526566657272616c5265776172644d616e616765723a207769746864726177206044820152673737ba1037b832b760c11b60648201526084015b60405180910390fd5b600082116104465760405162461bcd60e51b815260206004820152602960248201527f526566657272616c5265776172644d616e616765723a20616d6f756e7420636160448201526806e6e6f7420626520360bc1b60648201526084016103db565b3360009081526004602090815260408083206001600160a01b03851684529091529020548211156104cd5760405162461bcd60e51b815260206004820152602b60248201527f526566657272616c5265776172644d616e616765723a20696e7375666669636960448201526a656e742062616c616e636560a81b60648201526084016103db565b3360009081526004602090815260408083206001600160a01b03851684529091529020546104fc90839061100d565b3360008181526004602090815260408083206001600160a01b038716845290915280822093909355915184908381818185875af1925050503d8060008114610560576040519150601f19603f3d011682016040523d82523d6000602084013e610565565b606091505b50509050806105a95760405162461bcd60e51b815260206004820152601060248201526f2a3930b739b332b9103330b4b632b21760811b60448201526064016103db565b604080518481526001600160a01b038416602082015233917f56c54ba9bd38d8fd62012e42c7ee564519b09763c426d331b3661b537ead19b2910160405180910390a2506105f76001600055565b5050565b6001546001600160a01b031633148061061e57506005546001600160a01b031633145b6106765760405162461bcd60e51b815260206004820152602360248201527f526566657272616c5265776172644d616e616765723a20756e617574686f72696044820152621e995960ea1b60648201526084016103db565b61067f836107ce565b6106de5760405162461bcd60e51b815260206004820152602a60248201527f526566657272616c5265776172644d616e616765723a20636f6465206e6f74206044820152691c9959da5cdd195c995960b21b60648201526084016103db565b60006002846040516106f09190611026565b9081526040805160209281900383019020546001600160a01b039081166000818152600485528381209287168152919093522054909150610732908490611042565b6001600160a01b0382811660008181526004602090815260408083209488168084529482529182902094909455805187815293840192909252917f735fdbfef140ce0d1d608516edce0c33e95f4b4321fa07bfc26ad9b8c4070c66910160405180910390a250505050565b6107a5610cdb565b6107af6000610d35565b565b6107b9610cdb565b6005805460ff60a01b1916600160a01b179055565b6000806001600160a01b03166002836040516107ea9190611026565b908152604051908190036020019020546001600160a01b0316141592915050565b610813610cdb565b600580546001600160a01b0319166001600160a01b0392909216919091179055565b6003602052600090815260409020805461084e90611055565b80601f016020809104026020016040519081016040528092919081815260200182805461087a90611055565b80156108c75780601f1061089c576101008083540402835291602001916108c7565b820191906000526020600020905b8154815290600101906020018083116108aa57829003601f168201915b505050505081565b6108d7610cdb565b6001600160a01b0382166000908152600360205260409081902090516002916108ff9161108f565b90815260405190819003602001812080546001600160a01b0319169055829060029061092c908490611026565b908152604080516020928190038301902080546001600160a01b0319166001600160a01b03948516179055918416600090815260039091522061096f8282611154565b50816001600160a01b03167f5966bc808bde1b7383cff5c16aae92c9d399e83bba86aed0cbd293ef7267efd6826040516109a99190610f76565b60405180910390a25050565b6000815111610a1a5760405162461bcd60e51b815260206004820152602b60248201527f526566657272616c5265776172644d616e616765723a20636f64652063616e6e60448201526a6f7420626520656d70747960a81b60648201526084016103db565b600881511115610a825760405162461bcd60e51b815260206004820152602d60248201527f526566657272616c5265776172644d616e616765723a20636f64652063616e6e60448201526c0dee840c4ca40c2c4deecca407609b1b60648201526084016103db565b60006001600160a01b0316600282604051610a9d9190611026565b908152604051908190036020019020546001600160a01b031614610b3c5760405162461bcd60e51b815260206004820152604a60248201527f526566657272616c5265776172644d616e616765723a20636f646520616c726560448201527f6164792072656769737465726564206f72206164647265737320616c72656164606482015269792068617320636f646560b01b608482015260a4016103db565b33600282604051610b4d9190611026565b908152604080516020928190038301902080546001600160a01b0319166001600160a01b039490941693909317909255336000908152600390915220610b938282611154565b50336001600160a01b03167f5966bc808bde1b7383cff5c16aae92c9d399e83bba86aed0cbd293ef7267efd682604051610bcd9190610f76565b60405180910390a250565b6000600282604051610bea9190611026565b908152604051908190036020019020546001600160a01b031692915050565b610c11610cdb565b6001600160a01b038116610c765760405162461bcd60e51b815260206004820152602660248201527f4f776e61626c653a206e6577206f776e657220697320746865207a65726f206160448201526564647265737360d01b60648201526084016103db565b610c7f81610d35565b50565b600260005403610cd45760405162461bcd60e51b815260206004820152601f60248201527f5265656e7472616e637947756172643a207265656e7472616e742063616c6c0060448201526064016103db565b6002600055565b6001546001600160a01b031633146107af5760405162461bcd60e51b815260206004820181905260248201527f4f776e61626c653a2063616c6c6572206973206e6f7420746865206f776e657260448201526064016103db565b600180546001600160a01b038381166001600160a01b0319831681179093556040519116919082907f8be0079c531659141344cd1fd0a4f28419497f9722a3daafe3b4186f6b6457e090600090a35050565b80356001600160a01b0381168114610d9e57600080fd5b919050565b60008060408385031215610db657600080fd5b82359150610dc660208401610d87565b90509250929050565b634e487b7160e01b600052604160045260246000fd5b600082601f830112610df657600080fd5b813567ffffffffffffffff80821115610e1157610e11610dcf565b604051601f8301601f19908116603f01168101908282118183101715610e3957610e39610dcf565b81604052838152866020858801011115610e5257600080fd5b836020870160208301376000602085830101528094505050505092915050565b600080600060608486031215610e8757600080fd5b833567ffffffffffffffff811115610e9e57600080fd5b610eaa86828701610de5565b93505060208401359150610ec060408501610d87565b90509250925092565b600060208284031215610edb57600080fd5b813567ffffffffffffffff811115610ef257600080fd5b610efe84828501610de5565b949350505050565b600060208284031215610f1857600080fd5b610f2182610d87565b9392505050565b60008060408385031215610f3b57600080fd5b610f4483610d87565b9150610dc660208401610d87565b60005b83811015610f6d578181015183820152602001610f55565b50506000910152565b6020815260008251806020840152610f95816040850160208701610f52565b601f01601f19169190910160400192915050565b60008060408385031215610fbc57600080fd5b610fc583610d87565b9150602083013567ffffffffffffffff811115610fe157600080fd5b610fed85828601610de5565b9150509250929050565b634e487b7160e01b600052601160045260246000fd5b8181038181111561102057611020610ff7565b92915050565b60008251611038818460208701610f52565b9190910192915050565b8082018082111561102057611020610ff7565b600181811c9082168061106957607f821691505b60208210810361108957634e487b7160e01b600052602260045260246000fd5b50919050565b600080835461109d81611055565b600182811680156110b557600181146110ca576110f9565b60ff19841687528215158302870194506110f9565b8760005260208060002060005b858110156110f05781548a8201529084019082016110d7565b50505082870194505b50929695505050505050565b601f82111561114f57600081815260208120601f850160051c8101602086101561112c5750805b601f850160051c820191505b8181101561114b57828155600101611138565b5050505b505050565b815167ffffffffffffffff81111561116e5761116e610dcf565b6111828161117c8454611055565b84611105565b602080601f8311600181146111b7576000841561119f5750858301515b600019600386901b1c1916600185901b17855561114b565b600085815260208120601f198616915b828110156111e6578886015182559484019460019091019084016111c7565b50858210156112045787850151600019600388901b60f8161c191681555b5050505050600190811b0190555056fea2646970667358221220113e44a49ca52c6d15912eadde8bd8f1eab41a68f3f29fdd5d173066eafcebb064736f6c63430008140033",
  "devdoc": {
    "kind": "dev",
    "methods": {
      "owner()": {
        "details": "Returns the address of the current owner."
      },
      "renounceOwnership()": {
        "details": "Leaves the contract without owner. It will not be possible to call `onlyOwner` functions. Can only be called by the current owner. NOTE: Renouncing ownership will leave the contract without an owner, thereby disabling any functionality that is only available to the owner."
      },
      "transferOwnership(address)": {
        "details": "Transfers ownership of the contract to a new account (`newOwner`). Can only be called by the current owner."
      }
    },
    "title": "ReferralRewardManager This is the contract that handles the referral rewards",
    "version": 1
  },
  "userdoc": {
    "kind": "user",
    "methods": {},
    "version": 1
  },
  "storageLayout": {
    "storage": [
      {
        "astId": 512,
        "contract": "contracts/ReferralRewardManager.sol:ReferralRewardManager",
        "label": "_status",
        "offset": 0,
        "slot": "0",
        "type": "t_uint256"
      },
      {
        "astId": 396,
        "contract": "contracts/ReferralRewardManager.sol:ReferralRewardManager",
        "label": "_owner",
        "offset": 0,
        "slot": "1",
        "type": "t_address"
      },
      {
        "astId": 5530,
        "contract": "contracts/ReferralRewardManager.sol:ReferralRewardManager",
        "label": "codeToAddress",
        "offset": 0,
        "slot": "2",
        "type": "t_mapping(t_string_memory_ptr,t_address)"
      },
      {
        "astId": 5535,
        "contract": "contracts/ReferralRewardManager.sol:ReferralRewardManager",
        "label": "addressToCode",
        "offset": 0,
        "slot": "3",
        "type": "t_mapping(t_address,t_string_storage)"
      },
      {
        "astId": 5541,
        "contract": "contracts/ReferralRewardManager.sol:ReferralRewardManager",
        "label": "balances",
        "offset": 0,
        "slot": "4",
        "type": "t_mapping(t_address,t_mapping(t_address,t_uint256))"
      },
      {
        "astId": 5543,
        "contract": "contracts/ReferralRewardManager.sol:ReferralRewardManager",
        "label": "auction",
        "offset": 0,
        "slot": "5",
        "type": "t_address"
      },
      {
        "astId": 5546,
        "contract": "contracts/ReferralRewardManager.sol:ReferralRewardManager",
        "label": "withdrawOpen",
        "offset": 20,
        "slot": "5",
        "type": "t_bool"
      }
    ],
    "types": {
      "t_address": {
        "encoding": "inplace",
        "label": "address",
        "numberOfBytes": "20"
      },
      "t_bool": {
        "encoding": "inplace",
        "label": "bool",
        "numberOfBytes": "1"
      },
      "t_mapping(t_address,t_mapping(t_address,t_uint256))": {
        "encoding": "mapping",
        "key": "t_address",
        "label": "mapping(address => mapping(address => uint256))",
        "numberOfBytes": "32",
        "value": "t_mapping(t_address,t_uint256)"
      },
      "t_mapping(t_address,t_string_storage)": {
        "encoding": "mapping",
        "key": "t_address",
        "label": "mapping(address => string)",
        "numberOfBytes": "32",
        "value": "t_string_storage"
      },
      "t_mapping(t_address,t_uint256)": {
        "encoding": "mapping",
        "key": "t_address",
        "label": "mapping(address => uint256)",
        "numberOfBytes": "32",
        "value": "t_uint256"
      },
      "t_mapping(t_string_memory_ptr,t_address)": {
        "encoding": "mapping",
        "key": "t_string_memory_ptr",
        "label": "mapping(string => address)",
        "numberOfBytes": "32",
        "value": "t_address"
      },
      "t_string_memory_ptr": {
        "encoding": "bytes",
        "label": "string",
        "numberOfBytes": "32"
      },
      "t_string_storage": {
        "encoding": "bytes",
        "label": "string",
        "numberOfBytes": "32"
      },
      "t_uint256": {
        "encoding": "inplace",
        "label": "uint256",
        "numberOfBytes": "32"
      }
    }
  }
}