{
  "address": "0xD7CEba9905c9311E701Dd2Dc212469D24c09576d",
  "abi": [
    {
      "anonymous": false,
      "inputs": [
        {
          "indexed": true,
          "internalType": "address",
          "name": "deployer",
          "type": "address"
        },
        {
          "indexed": true,
          "internalType": "address",
          "name": "erc20Address",
          "type": "address"
        },
        {
          "indexed": false,
          "internalType": "string",
          "name": "name",
          "type": "string"
        },
        {
          "indexed": false,
          "internalType": "string",
          "name": "symbol",
          "type": "string"
        },
        {
          "indexed": false,
          "internalType": "uint256",
          "name": "initialAmount",
          "type": "uint256"
        }
      ],
      "name": "ERC20Deployed",
      "type": "event"
    },
    {
      "inputs": [
        {
          "internalType": "string",
          "name": "name",
          "type": "string"
        },
        {
          "internalType": "string",
          "name": "symbol",
          "type": "string"
        },
        {
          "internalType": "uint256",
          "name": "initialAmount",
          "type": "uint256"
        }
      ],
      "name": "deployERC20",
      "outputs": [
        {
          "internalType": "address",
          "name": "newERC20",
          "type": "address"
        }
      ],
      "stateMutability": "nonpayable",
      "type": "function"
    }
  ],
  "transactionHash": "0x907c6ba21f82bbc047aa08841724f5a46d523a9d72d90a90cbfcfe8d0150a724",
  "args": [],
  "numDeployments": 1,
  "solcInputHash": "d8c0caa2449d1cea817ba4d85d3fc074",
  "bytecode": "0x608060405234801561001057600080fd5b50611099806100206000396000f3fe608060405234801561001057600080fd5b506004361061002b5760003560e01c80636f43b40214610030575b600080fd5b61004361003e3660046101a5565b61005f565b6040516001600160a01b03909116815260200160405180910390f35b60008084848433604051610072906100f5565b61007f9493929190610258565b604051809103906000f08015801561009b573d6000803e3d6000fd5b509050806001600160a01b0316336001600160a01b03167f85e3b1e6a4b30ddbcf50fea3224d7f7c8f36d89d9c73ec087877d446da3fa1268787876040516100e59392919061029f565b60405180910390a3949350505050565b610d8e806102d683390190565b634e487b7160e01b600052604160045260246000fd5b600082601f83011261012957600080fd5b813567ffffffffffffffff8082111561014457610144610102565b604051601f8301601f19908116603f0116810190828211818310171561016c5761016c610102565b8160405283815286602085880101111561018557600080fd5b836020870160208301376000602085830101528094505050505092915050565b6000806000606084860312156101ba57600080fd5b833567ffffffffffffffff808211156101d257600080fd5b6101de87838801610118565b945060208601359150808211156101f457600080fd5b5061020186828701610118565b925050604084013590509250925092565b6000815180845260005b818110156102385760208185018101518683018201520161021c565b506000602082860101526020601f19601f83011685010191505092915050565b60808152600061026b6080830187610212565b828103602084015261027d8187610212565b604084019590955250506001600160a01b039190911660609091015292915050565b6060815260006102b26060830186610212565b82810360208401526102c48186610212565b91505082604083015294935050505056fe60a06040523480156200001157600080fd5b5060405162000d8e38038062000d8e8339810160408190526200003491620002d8565b8184846003620000458382620003fb565b506004620000548282620003fb565b50505060008111620000ad5760405162461bcd60e51b815260206004820152601560248201527f45524332304361707065643a206361702069732030000000000000000000000060448201526064015b60405180910390fd5b608052620000bc8183620000c6565b50505050620004ef565b620000d28282620000d6565b5050565b60805181620000e460025490565b620000f09190620004c7565b1115620001405760405162461bcd60e51b815260206004820152601960248201527f45524332304361707065643a20636170206578636565646564000000000000006044820152606401620000a4565b620000d282826001600160a01b0382166200019e5760405162461bcd60e51b815260206004820152601f60248201527f45524332303a206d696e7420746f20746865207a65726f2061646472657373006044820152606401620000a4565b8060026000828254620001b29190620004c7565b90915550506001600160a01b038216600081815260208181526040808320805486019055518481527fddf252ad1be2c89b69c2b068fc378daa952ba7f163c4a11628f55a4df523b3ef910160405180910390a3620000d2600083835b505050565b634e487b7160e01b600052604160045260246000fd5b600082601f8301126200023b57600080fd5b81516001600160401b038082111562000258576200025862000213565b604051601f8301601f19908116603f0116810190828211818310171562000283576200028362000213565b81604052838152602092508683858801011115620002a057600080fd5b600091505b83821015620002c45785820183015181830184015290820190620002a5565b600093810190920192909252949350505050565b60008060008060808587031215620002ef57600080fd5b84516001600160401b03808211156200030757600080fd5b620003158883890162000229565b955060208701519150808211156200032c57600080fd5b506200033b8782880162000229565b60408701516060880151919550935090506001600160a01b03811681146200036257600080fd5b939692955090935050565b600181811c908216806200038257607f821691505b602082108103620003a357634e487b7160e01b600052602260045260246000fd5b50919050565b601f8211156200020e57600081815260208120601f850160051c81016020861015620003d25750805b601f850160051c820191505b81811015620003f357828155600101620003de565b505050505050565b81516001600160401b0381111562000417576200041762000213565b6200042f816200042884546200036d565b84620003a9565b602080601f8311600181146200046757600084156200044e5750858301515b600019600386901b1c1916600185901b178555620003f3565b600085815260208120601f198616915b82811015620004985788860151825594840194600190910190840162000477565b5085821015620004b75787850151600019600388901b60f8161c191681555b5050505050600190811b01905550565b80820180821115620004e957634e487b7160e01b600052601160045260246000fd5b92915050565b6080516108836200050b600039600061013001526108836000f3fe608060405234801561001057600080fd5b50600436106100b45760003560e01c80633950935111610071578063395093511461015457806370a082311461016757806395d89b4114610190578063a457c2d714610198578063a9059cbb146101ab578063dd62ed3e146101be57600080fd5b806306fdde03146100b9578063095ea7b3146100d757806318160ddd146100fa57806323b872dd1461010c578063313ce5671461011f578063355274ea1461012e575b600080fd5b6100c16101d1565b6040516100ce91906106cd565b60405180910390f35b6100ea6100e5366004610737565b610263565b60405190151581526020016100ce565b6002545b6040519081526020016100ce565b6100ea61011a366004610761565b61027d565b604051601281526020016100ce565b7f00000000000000000000000000000000000000000000000000000000000000006100fe565b6100ea610162366004610737565b6102a1565b6100fe61017536600461079d565b6001600160a01b031660009081526020819052604090205490565b6100c16102c3565b6100ea6101a6366004610737565b6102d2565b6100ea6101b9366004610737565b610352565b6100fe6101cc3660046107bf565b610360565b6060600380546101e0906107f2565b80601f016020809104026020016040519081016040528092919081815260200182805461020c906107f2565b80156102595780601f1061022e57610100808354040283529160200191610259565b820191906000526020600020905b81548152906001019060200180831161023c57829003601f168201915b5050505050905090565b60003361027181858561038b565b60019150505b92915050565b60003361028b8582856104af565b610296858585610529565b506001949350505050565b6000336102718185856102b48383610360565b6102be919061082c565b61038b565b6060600480546101e0906107f2565b600033816102e08286610360565b9050838110156103455760405162461bcd60e51b815260206004820152602560248201527f45524332303a2064656372656173656420616c6c6f77616e63652062656c6f77604482015264207a65726f60d81b60648201526084015b60405180910390fd5b610296828686840361038b565b600033610271818585610529565b6001600160a01b03918216600090815260016020908152604080832093909416825291909152205490565b6001600160a01b0383166103ed5760405162461bcd60e51b8152602060048201526024808201527f45524332303a20617070726f76652066726f6d20746865207a65726f206164646044820152637265737360e01b606482015260840161033c565b6001600160a01b03821661044e5760405162461bcd60e51b815260206004820152602260248201527f45524332303a20617070726f766520746f20746865207a65726f206164647265604482015261737360f01b606482015260840161033c565b6001600160a01b0383811660008181526001602090815260408083209487168084529482529182902085905590518481527f8c5be1e5ebec7d5bd14f71427d1e84f3dd0314c0f7b2291e5b200ac8c7c3b925910160405180910390a3505050565b60006104bb8484610360565b9050600019811461052357818110156105165760405162461bcd60e51b815260206004820152601d60248201527f45524332303a20696e73756666696369656e7420616c6c6f77616e6365000000604482015260640161033c565b610523848484840361038b565b50505050565b6001600160a01b03831661058d5760405162461bcd60e51b815260206004820152602560248201527f45524332303a207472616e736665722066726f6d20746865207a65726f206164604482015264647265737360d81b606482015260840161033c565b6001600160a01b0382166105ef5760405162461bcd60e51b815260206004820152602360248201527f45524332303a207472616e7366657220746f20746865207a65726f206164647260448201526265737360e81b606482015260840161033c565b6001600160a01b038316600090815260208190526040902054818110156106675760405162461bcd60e51b815260206004820152602660248201527f45524332303a207472616e7366657220616d6f756e7420657863656564732062604482015265616c616e636560d01b606482015260840161033c565b6001600160a01b03848116600081815260208181526040808320878703905593871680835291849020805487019055925185815290927fddf252ad1be2c89b69c2b068fc378daa952ba7f163c4a11628f55a4df523b3ef910160405180910390a3610523565b600060208083528351808285015260005b818110156106fa578581018301518582016040015282016106de565b506000604082860101526040601f19601f8301168501019250505092915050565b80356001600160a01b038116811461073257600080fd5b919050565b6000806040838503121561074a57600080fd5b6107538361071b565b946020939093013593505050565b60008060006060848603121561077657600080fd5b61077f8461071b565b925061078d6020850161071b565b9150604084013590509250925092565b6000602082840312156107af57600080fd5b6107b88261071b565b9392505050565b600080604083850312156107d257600080fd5b6107db8361071b565b91506107e96020840161071b565b90509250929050565b600181811c9082168061080657607f821691505b60208210810361082657634e487b7160e01b600052602260045260246000fd5b50919050565b8082018082111561027757634e487b7160e01b600052601160045260246000fdfea2646970667358221220ccbb2193bc78a484b824d7af79c4885e7f53a5e758326b241b4463678319851264736f6c63430008140033a26469706673582212206c3db29b30318786327c501760bafb40fca4a53d8a3f1916076561d9bfcce51464736f6c63430008140033",
  "devdoc": {
    "kind": "dev",
    "methods": {
      "deployERC20(string,string,uint256)": {
        "details": "Deploy a new ERC20 token with the specified name, symbol, decimals, and initial amount.",
        "params": {
          "initialAmount": "Initial supply of the token. Will be minted to the caller.",
          "name": "Name of the ERC20 token.",
          "symbol": "Symbol of the ERC20 token."
        },
        "returns": {
          "newERC20": "Address of the newly deployed ERC20 token."
        }
      }
    },
    "version": 1
  },
  "userdoc": {
    "kind": "user",
    "methods": {},
    "version": 1
  },
  "storageLayout": {
    "storage": [],
    "types": null
  }
}