{
  "address": "0x2F5534ccDb562cf2BAD5e453248163E51D921e99",
  "abi": [
    {
      "inputs": [],
      "stateMutability": "nonpayable",
      "type": "constructor"
    },
    {
      "anonymous": false,
      "inputs": [
        {
          "indexed": true,
          "internalType": "address",
          "name": "account",
          "type": "address"
        },
        {
          "indexed": false,
          "internalType": "uint256",
          "name": "amount",
          "type": "uint256"
        },
        {
          "indexed": false,
          "internalType": "address",
          "name": "token",
          "type": "address"
        }
      ],
      "name": "BalanceIncrease",
      "type": "event"
    },
    {
      "anonymous": false,
      "inputs": [
        {
          "indexed": true,
          "internalType": "address",
          "name": "account",
          "type": "address"
        },
        {
          "indexed": false,
          "internalType": "string",
          "name": "code",
          "type": "string"
        }
      ],
      "name": "CodeRegistered",
      "type": "event"
    },
    {
      "anonymous": false,
      "inputs": [
        {
          "indexed": true,
          "internalType": "address",
          "name": "previousOwner",
          "type": "address"
        },
        {
          "indexed": true,
          "internalType": "address",
          "name": "newOwner",
          "type": "address"
        }
      ],
      "name": "OwnershipTransferred",
      "type": "event"
    },
    {
      "anonymous": false,
      "inputs": [
        {
          "indexed": true,
          "internalType": "address",
          "name": "account",
          "type": "address"
        },
        {
          "indexed": false,
          "internalType": "uint256",
          "name": "amount",
          "type": "uint256"
        },
        {
          "indexed": false,
          "internalType": "address",
          "name": "token",
          "type": "address"
        }
      ],
      "name": "Withdraw",
      "type": "event"
    },
    {
      "inputs": [
        {
          "internalType": "string",
          "name": "_referralCode",
          "type": "string"
        },
        {
          "internalType": "uint256",
          "name": "_amount",
          "type": "uint256"
        },
        {
          "internalType": "address",
          "name": "_token",
          "type": "address"
        }
      ],
      "name": "addToBalance",
      "outputs": [],
      "stateMutability": "nonpayable",
      "type": "function"
    },
    {
      "inputs": [
        {
          "internalType": "address",
          "name": "",
          "type": "address"
        }
      ],
      "name": "addressToCode",
      "outputs": [
        {
          "internalType": "string",
          "name": "",
          "type": "string"
        }
      ],
      "stateMutability": "view",
      "type": "function"
    },
    {
      "inputs": [
        {
          "internalType": "address",
          "name": "_account",
          "type": "address"
        },
        {
          "internalType": "string",
          "name": "_code",
          "type": "string"
        }
      ],
      "name": "adminOverride",
      "outputs": [],
      "stateMutability": "nonpayable",
      "type": "function"
    },
    {
      "inputs": [],
      "name": "auctionBot",
      "outputs": [
        {
          "internalType": "address",
          "name": "",
          "type": "address"
        }
      ],
      "stateMutability": "view",
      "type": "function"
    },
    {
      "inputs": [
        {
          "internalType": "address",
          "name": "",
          "type": "address"
        },
        {
          "internalType": "address",
          "name": "",
          "type": "address"
        }
      ],
      "name": "balances",
      "outputs": [
        {
          "internalType": "uint256",
          "name": "",
          "type": "uint256"
        }
      ],
      "stateMutability": "view",
      "type": "function"
    },
    {
      "inputs": [
        {
          "internalType": "string",
          "name": "",
          "type": "string"
        }
      ],
      "name": "codeToAddress",
      "outputs": [
        {
          "internalType": "address",
          "name": "",
          "type": "address"
        }
      ],
      "stateMutability": "view",
      "type": "function"
    },
    {
      "inputs": [
        {
          "internalType": "string",
          "name": "_code",
          "type": "string"
        }
      ],
      "name": "isCodeRegistered",
      "outputs": [
        {
          "internalType": "bool",
          "name": "",
          "type": "bool"
        }
      ],
      "stateMutability": "view",
      "type": "function"
    },
    {
      "inputs": [],
      "name": "openWithdraw",
      "outputs": [],
      "stateMutability": "nonpayable",
      "type": "function"
    },
    {
      "inputs": [],
      "name": "owner",
      "outputs": [
        {
          "internalType": "address",
          "name": "",
          "type": "address"
        }
      ],
      "stateMutability": "view",
      "type": "function"
    },
    {
      "inputs": [
        {
          "internalType": "string",
          "name": "referralCode",
          "type": "string"
        }
      ],
      "name": "referralCodeOwner",
      "outputs": [
        {
          "internalType": "address",
          "name": "",
          "type": "address"
        }
      ],
      "stateMutability": "view",
      "type": "function"
    },
    {
      "inputs": [
        {
          "internalType": "string",
          "name": "_code",
          "type": "string"
        }
      ],
      "name": "registerCode",
      "outputs": [],
      "stateMutability": "nonpayable",
      "type": "function"
    },
    {
      "inputs": [],
      "name": "renounceOwnership",
      "outputs": [],
      "stateMutability": "nonpayable",
      "type": "function"
    },
    {
      "inputs": [
        {
          "internalType": "address",
          "name": "_auction",
          "type": "address"
        }
      ],
      "name": "setAuctionBot",
      "outputs": [],
      "stateMutability": "nonpayable",
      "type": "function"
    },
    {
      "inputs": [
        {
          "internalType": "address",
          "name": "newOwner",
          "type": "address"
        }
      ],
      "name": "transferOwnership",
      "outputs": [],
      "stateMutability": "nonpayable",
      "type": "function"
    },
    {
      "inputs": [
        {
          "internalType": "uint256",
          "name": "_amount",
          "type": "uint256"
        },
        {
          "internalType": "address",
          "name": "_token",
          "type": "address"
        }
      ],
      "name": "withdraw",
      "outputs": [],
      "stateMutability": "nonpayable",
      "type": "function"
    },
    {
      "inputs": [],
      "name": "withdrawOpen",
      "outputs": [
        {
          "internalType": "bool",
          "name": "",
          "type": "bool"
        }
      ],
      "stateMutability": "view",
      "type": "function"
    },
    {
      "stateMutability": "payable",
      "type": "receive"
    }
  ],
  "transactionHash": "0xdad6226453b27c7dadac2db7c9e010314606492850d22500c9057f6c9c668d1c",
  "args": [],
  "numDeployments": 1,
  "solcInputHash": "d8c0caa2449d1cea817ba4d85d3fc074",
  "bytecode": "0x60806040526005805460ff60a01b1916905534801561001d57600080fd5b50600160005561002c33610031565b610083565b600180546001600160a01b038381166001600160a01b0319831681179093556040519116919082907f8be0079c531659141344cd1fd0a4f28419497f9722a3daafe3b4186f6b6457e090600090a35050565b6114a0806100926000396000f3fe6080604052600436106100f55760003560e01c80639932dc051161008a578063d2a1945e11610059578063d2a1945e146102e9578063e177bb9b14610309578063eaf928b914610329578063f2fde38b1461034957600080fd5b80639932dc0514610215578063bb46f03014610256578063c23f001f14610276578063c4f74631146102bc57600080fd5b8063715018a6116100c6578063715018a614610199578063845105e2146101ae5780638da5cb5b146101c3578063951f18ab146101f557600080fd5b8062f714ce14610101578062fc976114610123578063302b260e1461014357806351d9bd001461017957600080fd5b366100fc57005b600080fd5b34801561010d57600080fd5b5061012161011c366004610fe0565b610369565b005b34801561012f57600080fd5b5061012161013e3660046110af565b61057c565b34801561014f57600080fd5b5060055461016490600160a01b900460ff1681565b60405190151581526020015b60405180910390f35b34801561018557600080fd5b50610121610194366004611106565b61071e565b3480156101a557600080fd5b50610121610748565b3480156101ba57600080fd5b5061012161075c565b3480156101cf57600080fd5b506001546001600160a01b03165b6040516001600160a01b039091168152602001610170565b34801561020157600080fd5b50610164610210366004611128565b610779565b34801561022157600080fd5b506101dd610230366004611128565b80516020818301810180516002825292820191909301209152546001600160a01b031681565b34801561026257600080fd5b506005546101dd906001600160a01b031681565b34801561028257600080fd5b506102ae61029136600461115d565b600460209081526000928352604080842090915290825290205481565b604051908152602001610170565b3480156102c857600080fd5b506102dc6102d7366004611106565b6107b6565b60405161017091906111ab565b3480156102f557600080fd5b506101216103043660046111de565b610850565b34801561031557600080fd5b50610121610324366004611128565b610936565b34801561033557600080fd5b506101dd610344366004611128565b610b59565b34801561035557600080fd5b50610121610364366004611106565b610b8a565b610371610c03565b600554600160a01b900460ff166103e05760405162461bcd60e51b815260206004820152602860248201527f526566657272616c5265776172644d616e616765723a207769746864726177206044820152673737ba1037b832b760c11b60648201526084015b60405180910390fd5b600082116104425760405162461bcd60e51b815260206004820152602960248201527f526566657272616c5265776172644d616e616765723a20616d6f756e7420636160448201526806e6e6f7420626520360bc1b60648201526084016103d7565b3360009081526004602090815260408083206001600160a01b03851684529091529020548211156104c95760405162461bcd60e51b815260206004820152602b60248201527f526566657272616c5265776172644d616e616765723a20696e7375666669636960448201526a656e742062616c616e636560a81b60648201526084016103d7565b3360009081526004602090815260408083206001600160a01b03851684529091529020546104f8908390611242565b3360008181526004602090815260408083206001600160a01b03871680855292529091209290925561052b919084610c5c565b604080518381526001600160a01b038316602082015233917f56c54ba9bd38d8fd62012e42c7ee564519b09763c426d331b3661b537ead19b2910160405180910390a26105786001600055565b5050565b6001546001600160a01b031633148061059f57506005546001600160a01b031633145b6105f75760405162461bcd60e51b815260206004820152602360248201527f526566657272616c5265776172644d616e616765723a20756e617574686f72696044820152621e995960ea1b60648201526084016103d7565b61060083610779565b61065f5760405162461bcd60e51b815260206004820152602a60248201527f526566657272616c5265776172644d616e616765723a20636f6465206e6f74206044820152691c9959da5cdd195c995960b21b60648201526084016103d7565b6000600284604051610671919061125b565b9081526040805160209281900383019020546001600160a01b0390811660008181526004855283812092871681529190935220549091506106b3908490611277565b6001600160a01b0382811660008181526004602090815260408083209488168084529482529182902094909455805187815293840192909252917f735fdbfef140ce0d1d608516edce0c33e95f4b4321fa07bfc26ad9b8c4070c66910160405180910390a250505050565b610726610cb3565b600580546001600160a01b0319166001600160a01b0392909216919091179055565b610750610cb3565b61075a6000610d0d565b565b610764610cb3565b6005805460ff60a01b1916600160a01b179055565b6000806001600160a01b0316600283604051610795919061125b565b908152604051908190036020019020546001600160a01b0316141592915050565b600360205260009081526040902080546107cf9061128a565b80601f01602080910402602001604051908101604052809291908181526020018280546107fb9061128a565b80156108485780601f1061081d57610100808354040283529160200191610848565b820191906000526020600020905b81548152906001019060200180831161082b57829003601f168201915b505050505081565b610858610cb3565b6001600160a01b038216600090815260036020526040908190209051600291610880916112c4565b90815260405190819003602001812080546001600160a01b031916905582906002906108ad90849061125b565b908152604080516020928190038301902080546001600160a01b0319166001600160a01b0394851617905591841660009081526003909152206108f08282611388565b50816001600160a01b03167f5966bc808bde1b7383cff5c16aae92c9d399e83bba86aed0cbd293ef7267efd68260405161092a91906111ab565b60405180910390a25050565b600081511161099b5760405162461bcd60e51b815260206004820152602b60248201527f526566657272616c5265776172644d616e616765723a20636f64652063616e6e60448201526a6f7420626520656d70747960a81b60648201526084016103d7565b600881511115610a035760405162461bcd60e51b815260206004820152602d60248201527f526566657272616c5265776172644d616e616765723a20636f64652063616e6e60448201526c0dee840c4ca40c2c4deecca407609b1b60648201526084016103d7565b60006001600160a01b0316600282604051610a1e919061125b565b908152604051908190036020019020546001600160a01b031614610abd5760405162461bcd60e51b815260206004820152604a60248201527f526566657272616c5265776172644d616e616765723a20636f646520616c726560448201527f6164792072656769737465726564206f72206164647265737320616c72656164606482015269792068617320636f646560b01b608482015260a4016103d7565b33600282604051610ace919061125b565b908152604080516020928190038301902080546001600160a01b0319166001600160a01b039490941693909317909255336000908152600390915220610b148282611388565b50336001600160a01b03167f5966bc808bde1b7383cff5c16aae92c9d399e83bba86aed0cbd293ef7267efd682604051610b4e91906111ab565b60405180910390a250565b6000600282604051610b6b919061125b565b908152604051908190036020019020546001600160a01b031692915050565b610b92610cb3565b6001600160a01b038116610bf75760405162461bcd60e51b815260206004820152602660248201527f4f776e61626c653a206e6577206f776e657220697320746865207a65726f206160448201526564647265737360d01b60648201526084016103d7565b610c0081610d0d565b50565b600260005403610c555760405162461bcd60e51b815260206004820152601f60248201527f5265656e7472616e637947756172643a207265656e7472616e742063616c6c0060448201526064016103d7565b6002600055565b604080516001600160a01b038416602482015260448082018490528251808303909101815260649091019091526020810180516001600160e01b031663a9059cbb60e01b179052610cae908490610d5f565b505050565b6001546001600160a01b0316331461075a5760405162461bcd60e51b815260206004820181905260248201527f4f776e61626c653a2063616c6c6572206973206e6f7420746865206f776e657260448201526064016103d7565b600180546001600160a01b038381166001600160a01b0319831681179093556040519116919082907f8be0079c531659141344cd1fd0a4f28419497f9722a3daafe3b4186f6b6457e090600090a35050565b6000610db4826040518060400160405280602081526020017f5361666545524332303a206c6f772d6c6576656c2063616c6c206661696c6564815250856001600160a01b0316610e349092919063ffffffff16565b9050805160001480610dd5575080806020019051810190610dd59190611448565b610cae5760405162461bcd60e51b815260206004820152602a60248201527f5361666545524332303a204552433230206f7065726174696f6e20646964206e6044820152691bdd081cdd58d8d9595960b21b60648201526084016103d7565b6060610e438484600085610e4b565b949350505050565b606082471015610eac5760405162461bcd60e51b815260206004820152602660248201527f416464726573733a20696e73756666696369656e742062616c616e636520666f6044820152651c8818d85b1b60d21b60648201526084016103d7565b600080866001600160a01b03168587604051610ec8919061125b565b60006040518083038185875af1925050503d8060008114610f05576040519150601f19603f3d011682016040523d82523d6000602084013e610f0a565b606091505b5091509150610f1b87838387610f26565b979650505050505050565b60608315610f95578251600003610f8e576001600160a01b0385163b610f8e5760405162461bcd60e51b815260206004820152601d60248201527f416464726573733a2063616c6c20746f206e6f6e2d636f6e747261637400000060448201526064016103d7565b5081610e43565b610e438383815115610faa5781518083602001fd5b8060405162461bcd60e51b81526004016103d791906111ab565b80356001600160a01b0381168114610fdb57600080fd5b919050565b60008060408385031215610ff357600080fd5b8235915061100360208401610fc4565b90509250929050565b634e487b7160e01b600052604160045260246000fd5b600082601f83011261103357600080fd5b813567ffffffffffffffff8082111561104e5761104e61100c565b604051601f8301601f19908116603f011681019082821181831017156110765761107661100c565b8160405283815286602085880101111561108f57600080fd5b836020870160208301376000602085830101528094505050505092915050565b6000806000606084860312156110c457600080fd5b833567ffffffffffffffff8111156110db57600080fd5b6110e786828701611022565b935050602084013591506110fd60408501610fc4565b90509250925092565b60006020828403121561111857600080fd5b61112182610fc4565b9392505050565b60006020828403121561113a57600080fd5b813567ffffffffffffffff81111561115157600080fd5b610e4384828501611022565b6000806040838503121561117057600080fd5b61117983610fc4565b915061100360208401610fc4565b60005b838110156111a257818101518382015260200161118a565b50506000910152565b60208152600082518060208401526111ca816040850160208701611187565b601f01601f19169190910160400192915050565b600080604083850312156111f157600080fd5b6111fa83610fc4565b9150602083013567ffffffffffffffff81111561121657600080fd5b61122285828601611022565b9150509250929050565b634e487b7160e01b600052601160045260246000fd5b818103818111156112555761125561122c565b92915050565b6000825161126d818460208701611187565b9190910192915050565b808201808211156112555761125561122c565b600181811c9082168061129e57607f821691505b6020821081036112be57634e487b7160e01b600052602260045260246000fd5b50919050565b60008083546112d28161128a565b600182811680156112ea57600181146112ff5761132e565b60ff198416875282151583028701945061132e565b8760005260208060002060005b858110156113255781548a82015290840190820161130c565b50505082870194505b50929695505050505050565b601f821115610cae57600081815260208120601f850160051c810160208610156113615750805b601f850160051c820191505b818110156113805782815560010161136d565b505050505050565b815167ffffffffffffffff8111156113a2576113a261100c565b6113b6816113b0845461128a565b8461133a565b602080601f8311600181146113eb57600084156113d35750858301515b600019600386901b1c1916600185901b178555611380565b600085815260208120601f198616915b8281101561141a578886015182559484019460019091019084016113fb565b50858210156114385787850151600019600388901b60f8161c191681555b5050505050600190811b01905550565b60006020828403121561145a57600080fd5b8151801515811461112157600080fdfea264697066735822122080d6c14a4d942794e22c97620326a59b947c571482e9340f9fe1c9efdffd7f2f64736f6c63430008140033",
  "devdoc": {
    "kind": "dev",
    "methods": {
      "owner()": {
        "details": "Returns the address of the current owner."
      },
      "renounceOwnership()": {
        "details": "Leaves the contract without owner. It will not be possible to call `onlyOwner` functions. Can only be called by the current owner. NOTE: Renouncing ownership will leave the contract without an owner, thereby disabling any functionality that is only available to the owner."
      },
      "transferOwnership(address)": {
        "details": "Transfers ownership of the contract to a new account (`newOwner`). Can only be called by the current owner."
      }
    },
    "title": "ReferralRewardManager This is the contract that handles the referral rewards",
    "version": 1
  },
  "userdoc": {
    "kind": "user",
    "methods": {},
    "version": 1
  },
  "storageLayout": {
    "storage": [
      {
        "astId": 1796,
        "contract": "contracts/ReferralRewardManager.sol:ReferralRewardManager",
        "label": "_status",
        "offset": 0,
        "slot": "0",
        "type": "t_uint256"
      },
      {
        "astId": 1680,
        "contract": "contracts/ReferralRewardManager.sol:ReferralRewardManager",
        "label": "_owner",
        "offset": 0,
        "slot": "1",
        "type": "t_address"
      },
      {
        "astId": 7211,
        "contract": "contracts/ReferralRewardManager.sol:ReferralRewardManager",
        "label": "codeToAddress",
        "offset": 0,
        "slot": "2",
        "type": "t_mapping(t_string_memory_ptr,t_address)"
      },
      {
        "astId": 7216,
        "contract": "contracts/ReferralRewardManager.sol:ReferralRewardManager",
        "label": "addressToCode",
        "offset": 0,
        "slot": "3",
        "type": "t_mapping(t_address,t_string_storage)"
      },
      {
        "astId": 7222,
        "contract": "contracts/ReferralRewardManager.sol:ReferralRewardManager",
        "label": "balances",
        "offset": 0,
        "slot": "4",
        "type": "t_mapping(t_address,t_mapping(t_address,t_uint256))"
      },
      {
        "astId": 7224,
        "contract": "contracts/ReferralRewardManager.sol:ReferralRewardManager",
        "label": "auctionBot",
        "offset": 0,
        "slot": "5",
        "type": "t_address"
      },
      {
        "astId": 7227,
        "contract": "contracts/ReferralRewardManager.sol:ReferralRewardManager",
        "label": "withdrawOpen",
        "offset": 20,
        "slot": "5",
        "type": "t_bool"
      }
    ],
    "types": {
      "t_address": {
        "encoding": "inplace",
        "label": "address",
        "numberOfBytes": "20"
      },
      "t_bool": {
        "encoding": "inplace",
        "label": "bool",
        "numberOfBytes": "1"
      },
      "t_mapping(t_address,t_mapping(t_address,t_uint256))": {
        "encoding": "mapping",
        "key": "t_address",
        "label": "mapping(address => mapping(address => uint256))",
        "numberOfBytes": "32",
        "value": "t_mapping(t_address,t_uint256)"
      },
      "t_mapping(t_address,t_string_storage)": {
        "encoding": "mapping",
        "key": "t_address",
        "label": "mapping(address => string)",
        "numberOfBytes": "32",
        "value": "t_string_storage"
      },
      "t_mapping(t_address,t_uint256)": {
        "encoding": "mapping",
        "key": "t_address",
        "label": "mapping(address => uint256)",
        "numberOfBytes": "32",
        "value": "t_uint256"
      },
      "t_mapping(t_string_memory_ptr,t_address)": {
        "encoding": "mapping",
        "key": "t_string_memory_ptr",
        "label": "mapping(string => address)",
        "numberOfBytes": "32",
        "value": "t_address"
      },
      "t_string_memory_ptr": {
        "encoding": "bytes",
        "label": "string",
        "numberOfBytes": "32"
      },
      "t_string_storage": {
        "encoding": "bytes",
        "label": "string",
        "numberOfBytes": "32"
      },
      "t_uint256": {
        "encoding": "inplace",
        "label": "uint256",
        "numberOfBytes": "32"
      }
    }
  }
}